S31508000000083D002041020008132A00082B22000898
S31508000010112A0008FB0800089132000800000000B9
S31508000020000000000000000000000000A901000810
S31508000030FD08000800000000ED010008BD2B0008BF
S315080000405B0200085B0200085B0200085B0200080E
S315080000505B0200085B0200085B0200085B020008FE
S315080000605B0200085B0200085B0200085B020008EE
S315080000705B0200085B0200085B0200085B020008DE
S315080000805B0200085B0200085B0200085B020008CE
S315080000905B0200085B0200085B0200085B020008BE
S315080000A05B0200085B0200085B0200085B020008AE
S315080000B0392C00085B0200085B0200085B02000896
S315080000C05B0200085B0200085B0200085B0200088E
S315080000D05B020008093100085B0200085B020008A1
S315080000E05B0200085B0200085B02000800F002F8E9
S315080000F000F04BF80AA090E8000C82448344AAF169
S315080001000107DA4501D100F040F8AFF2090EBAE866
S315080001100F0013F0010F18BFFB1A43F0010318472D
S31508000120104D0000304D0000103A24BF78C878C141
S31508000130FAD8520724BF30C830C144BF04680C60DF
S31508000140704700000023002400250026103A28BF27
S3150800015078C1FBD8520728BF30C148BF0B6070472B
S31508000160642900F0A980752900F0A6800020704750
S315080001701FB500F03BFB04000020002104F02CFE14
S31508000180401C60601FBD10B510BD00F041FB114654
S31508000190FFF7EEFF03F08DF800F05FFB03B4FFF7FF
S315080001A0F2FF03BC00F0A2FB224B19680868B0E80E
S315080001B0F00F80F30988BFF36F8F4FF0000080F3CC
S315080001C011884EF00D0E70470000000006480068C2
S315080001D0006880F3088862B661B6BFF34F8FBFF335
S315080001E06F8F00DF00BF00BF08ED00E0EFF3098066
S315080001F0BFF36F8F0F4B1A6820E9F00F106008B530
S315080002004FF0500080F31188BFF34F8FBFF36F8F05
S3150800021003F0B6FF4FF0000080F31188BDE80840F0
S3150800022019680868B0E8F00F80F30988BFF36F8F84
S31508000230704700BF58000020EFF3058070470000A4
S315080002400948804709480047FEE7FEE7FEE7FEE75C
S31508000250FEE7FEE7FEE7FEE7FEE7FEE70448054998
S31508000260054A064B70470000352C0008ED000008CB
S3150800027008370020083D00200839002008390020EA
S315080002800FB47CB50C0009AA009001D02044401E8A
S31508000290084B7B4469460190089800F012FA054617
S315080002A01CB10020694600F01FFA28467CBC5DF8A0
S315080002B014FB00005D0400002DE9F0410646002409
S315080002C010687529314616A510D0AFF300800028AE
S315080002D002DA404213A507E031688A0701D512A55C
S315080002E002E0490704D511A5012401E0AFF3008017
S315080002F000210A2206F1240709E0B0FBF2FCB0FB54
S31508000300F2F302FB1C00303078541846491C0028CA
S31508000310F3D123462A463046BDE8F04100F072B9CB
S31508000320000000002D0000002B0000002000000047
S315080003302DE9F0410F460546002028622846E9685F
S31508000340884770B3252805D0D5E901219047286A42
S31508000350401CF2E7E9682846002688476C280446C8
S315080003600AD0682C08D04C2C35D06A2C31D0742C85
S3150800037031D07A2C2FD016E0E968064628468847F9
S31508000380B042044608D16C2E23D04FF48066284626
S31508000390E9688847044606E06C2E03D04FF4807659
S315080003A001E01EE04026E4B1A4F14100192802D874
S315080003B0203446F400663A46214628462E60FFF762
S315080003C0CFFE60B1012808D0FF1D27F007070837C0
S315080003D0B4E78026DBE70026D9E73F1DAEE72046CF
S315080003E0B2E7286ABDE8F0812DE9F05F93460F462B
S315080003F080460446002600F001F9D0F800908246AF
S3150800040014F8015B2DB100F0F1F80068405DC007F3
S31508000410F6D12B2D02D02D2D1AD0641E0021CAF834
S3150800042000105A463946204600F06BF9014627B1B6
S315080004303868A04201D1C7F80080DAF8000002281F
S3150800044009D0CAF80090700505D54842BDE8F09F66
S3150800045046F48066E2E70846F8E710B5431C02E072
S3150800046010F8011B71B18107FAD14FF0013202C8A9
S315080004708C1A8C4314EAC211F9D0C01A0A0603D0A2
S31508000480C01E10BDC01A10BD0A0401D0801E10BDC2
S315080004900902FCD0401E10BD032A40F2308010F03D
S315080004A0030C00F0158011F8013BBCF1020F624401
S315080004B098BF11F801CB00F8013B38BF11F8013B92
S315080004C0A2F1040298BF00F801CB38BF00F8013B3F
S315080004D011F0030300F02580083AC0F0088051F8AF
S315080004E0043B083A51F804CBA0E80810F5E7121DBA
S315080004F05CBF51F8043B40F8043BAFF30080D207D9
S3150800050024BF11F8013B11F801CB48BF11F8012BA4
S3150800051024BF00F8013B00F801CB48BF00F8012BC7
S31508000520704710B5203AC0F00B80B1E81850203A51
S31508000530A0E81850B1E81850A0E81850BFF4F5AF75
S315080005405FEA027C24BFB1E81850A0E8185044BFFF
S3150800055018C918C0BDE810405FEA827C24BF51F86C
S31508000560043B40F8043B08BF7047D20728BF31F860
S31508000570023B48BF11F8012B28BF20F8023B48BFB1
S3150800058000F8012B704702F0FF0343EA032242EA10
S31508000590024200F007B94FF0000200B51346944630
S315080005A09646203922BFA0E80C50A0E80C50B1F1BD
S315080005B02001BFF4F7AF090728BFA0E80C5048BFD1
S315080005C00CC05DF804EB890028BF40F8042B08BF6F
S315080005D0704748BF20F8022B11F0804F18BF00F86B
S315080005E0012B7047704770477047000010B500F040
S315080005F0FDF8001D10BD00BFE14700000048704728
S31508000600A83600202DE9F0470D469946924604463D
S3150800061000F124080168880604D5E06921F0100174
S31508000620216000E00120A84201DD471B00E0002709
S31508000630A1697A1902EB0900081AA0612078C00698
S3150800064002D42046AFF30080002608E0D4E9012151
S315080006501AF806009047206A401C761C20624E4510
S31508000660F4DB2078C0060AD52046AFF3008006E002
S31508000670D4E9012130209047206A401C2062381EA8
S31508000680A7F10107F4DC07E0D4E9012118F8050011
S315080006909047206A401C2062281EA5F10105F3DC5C
S315080006A02046AFF300802078000602D50220BDE878
S315080006B0F0870120FBE7000001694A1C02610878FF
S315080006C0704700B58FB0CDE9013100210591054984
S315080006D07944CDE9031011466846FFF729FE0FB0A5
S315080006E000BD0000E5FFFFFF0A6802F8010B0A607B
S315080006F07047D1E900239A4202D2531C0B6010704E
S3150800070070472DE9F05F824615468B4600270AF1A9
S315080007100104B9460078302801D09DB113E014F8D9
S31508000720010B0127782803D0582801D045B10AE0E3
S315080007300DB1102D07D1002714F8010B102502E082
S31508000740082500E00A250026B0460EE005FB08004D
S3150800075005FB06F101271FFA80F801EB1046B6F5EE
S31508000760803F00D3B94614F8010B294600F042F839
S315080007700028EBDABBF1000F05D00FB1641E00E0CC
S315080007805446CBF80040B9F1000F06D0FFF736FF04
S3150800079002210160C81EBDE8F09F48EA0640FAE754
S315080007A04FF000020429C0F0128010F0030C3FF449
S315080007B0F4AECCF1040CBCF1020F18BF00F8012B03
S315080007C0A8BF20F8022BA1EB0C01FFF7E6BE5FEAF3
S315080007D0C17C24BF00F8012B00F8012B48BF00F8A4
S315080007E0012B704700487047A8360020004870471C
S315080007F0C83600203A2800D2303820F02002412A94
S3150800080001D3A2F13700884201D34FF0FF30704779
S315080008107546FFF7E7FFAE4605006946534620F0E2
S315080008200700854618B020B5FFF718FDBDE820403B
S315080008304FF000064FF000074FF000084FF0000B8E
S3150800084021F00701AC46ACE8C009ACE8C009ACE841
S31508000850C009ACE8C0098D46704710B50446AFF329
S3150800086000802046BDE81040FFF798BC4FF0013CD9
S3150800087050F8042B51F8043B9A4221D1A2EB0C0301
S31508000880934313EACC1317D150F8042B51F8043BC1
S315080008909A4215D1A2EB0C03934313EACC130BD15E
S315080008A050F8042B51F8043B9A4209D1A2EB0C03E9
S315080008B0934313EACC13DBD04FF00000704700BF18
S315080008C0D01A01BAB1FA81F101F0180122FA01F041
S315080008D0CB40C1F12001DBB2C0B2C01A2CFA01F339
S315080008E0D11A914311EAC311E6D17047014918207C
S315080008F0ABBEFEE7260002007047FEE7704772B6F9
S31508000900FEE710B590F821100022022905D004212F
S31508000910816380F82020012010BD01680B6823F050
S315080009200E030B6001680B6823F001030B6090F857
S315080009304030C46B012101FA03F3636080F821108B
S3150800094080F82020104610BD10B590F8211000241C
S31508000950022903D00421816301243DE001680A6865
S3150800096022F00E020A6001680A6822F001020A6093
S315080009701A4A0168914201D1012121E0174A14322D
S31508000980914201D110211BE0144A2832914201D12B
S31508000990891515E0114A3C32914201D189140FE0BC
S315080009A00E4A5032914202D14FF4803108E00B4A88
S315080009B06432914202D14FF4801101E04FF0807108
S315080009C0064A083A5160012180F82110002180F872
S315080009D02010416B01B18847204610BD080002402F
S315080009E02DE9F84FDFF8B8910024A9F1040B234646
S315080009F00F2709F1040AABF1040EC9E00125A54049
S31508000A002A40AA427DD1674ED1F804C0ACEB06084D
S31508000A10B44532D014DCBCF1030F3AD009DCBCF182
S31508000A20000F2AD0BCF1010F1CD0BCF1020F31D146
S31508000A301DE0BCF1110F17D0BCF1120F2AD119E035
S31508000A40B8F5881F19D006DCB8F5803F15D0B8F57B
S31508000A50801F1FD111E0B8F5001F0ED0B8F5041F8E
S31508000A6018D10AE0CB6815E0CB681B1D12E0CB68ED
S31508000A7008330FE0CB680C330CE08B682BB1012BE5
S31508000A804FF0080303D0456104E0042302E0056142
S31508000A9000E00023FF2A01D8064601E000F104061B
S31508000AA04FEA840501D9A5F12005D6F8008007FA92
S31508000AB005FC28EA0C0803FA05F548EA0508C6F80D
S31508000AC000804D68ED0062D5374DAE6946F00106E7
S31508000AD0AE61AD6924F0030605F001050095334DB6
S31508000AE006EB050CDCF80850A607360F07FA06F8D9
S31508000AF025EA0805DFF8B880404503D14FF000081D
S31508000B0017E044E0DFF8AC80404502D14FF0010819
S31508000B100FE0DFF8A480404502D14FF0020808E054
S31508000B20DFF89880404502D14FF0030801E04FF006
S31508000B30040808FA06F848EA0508CCF808804D685B
S31508000B40D9F80060ED024D4601D5164300E09643FC
S31508000B502E604D68DAF80060AD02554601D5164399
S31508000B6000E096432E604D68DBF80060AD035D46F5
S31508000B7001D5164300E096432E604D68DEF8006006
S31508000B80ED03754601D5164300E096432E60641CB6
S31508000B900D682A46E5407FF431AFBDE8F88F0000BE
S31508000BA00804014000001110001002400000014036
S31508000BB000080140000C01400010014000140140EB
S31508000BC001488068704700001C00002070B50400CA
S31508000BD025D094F83D00002520B984F83C502046DD
S31508000BE000F07EFA242084F83D002068016821F090
S31508000BF0010101602068016841F400410160206834
S31508000C00016821F40041016000F018FC4D4A616852
S31508000C10914201D84C4900E04C49884201D2012052
S31508000C2070BD4B492368B0FBF1F15E6826F03F06BC
S31508000C300E435E606368934206D94FF49673594330
S31508000C404FF47A73B1FBF3F12368491C1E6A26F048
S31508000C503F06314319626168914210D84900401E27
S31508000C60B0FBF1F2521CC2F30B02042A01D2042093
S31508000C7022E0B0FBF1F0401CC0F30B001CE0A268B8
S31508000C80F2B301EBC10303EB0116431EB3FBF6F304
S31508000C905B1C43F480431B0549D092B301EBC102A8
S31508000CA002EB0111401EB0FBF1F0401CC0F30B0033
S31508000CB040F4804040F400402168CA694CF6FF734E
S31508000CC09A431043C861D4E90710014320680268B3
S31508000CD022F0C00211430160D4E9030101432068F0
S31508000CE0826848F2FF339A4311438160D4E90501CB
S31508000CF008432168CA6822F0FF021043C86001E071
S31508000D000EE016E02068016841F0010101602564E3
S31508000D10202084F83D00256384F83E50002070BDED
S31508000D2001EB4106431EB3FBF6F35B1CB3E7012058
S31508000D30C2E701EB4101401EB0FBF1F0401CC0F3D5
S31508000D400B00B7E7A086010080841E0000093D005D
S31508000D5040420F002DE9FF4F83B00025DDE91079E9
S31508000D609A4693460446DDF848800095FFF728FF23
S31508000D70064694F83D0020287CD11923012288498B
S31508000D802046009601F068FB0028F5D194F83C004F
S31508000D9001286FD0012084F83C0020680168C90743
S31508000DA003D1016841F0010101602068016821F45E
S31508000DB000610160222084F83D00402084F83E004E
S31508000DC025646762A4F82A90608D20857548E062DC
S31508000DD0CDE9008653465A462046049901F03EFA64
S31508000DE000287CD1208DDFF8C091202768B1012822
S31508000DF014D00228206801681ED041F48061016081
S31508000E002068416980690090BCE020684169816971
S31508000E100091016841F400710160B3E0206801683F
S31508000E2021F48061016072B6206841698169009188
S31508000E30016841F400710AE041F40061016072B68C
S31508000E402068416981690091016821F48061016027
S31508000E5062B697E0032865D801280CD002284346D5
S31508000E604FF000024946204600960BD001F0F4FAEE
S31508000E70A8BB0CE091E032464146204601F092FBC1
S31508000E8068BB72E001F0E8FA48BB72B633E0206846
S31508000E90016821F48061016072B620680069616AA0
S31508000EA00870606A401C6062208D401E2085608D37
S31508000EB0401E60853D4846F2A8110068B0FBF1F077
S31508000EC0C0EBC00000EB80000090401E009007D0E9
S31508000ED020684069C04340070DD50098F5E727E02C
S31508000EE044F8305F6773A573206940F020002061DD
S31508000EF062B625731CE02068016841F40071016040
S31508000F0020680069616A0870606A401C6062218D09
S31508000F10491E2185618D491E618562B62168096968
S31508000F20017026E032464146204601F03BFB18B1E7
S31508000F30012007B0BDE8F08F20680069616A087073
S31508000F40606A401C6062208D401E81B22185608DDA
S31508000F50401E608520684269D243520712D403298D
S31508000F6003D1016821F48061016020680069616A23
S31508000F700870606A401C6062208D401E2085608D66
S31508000F80401E6085208D00287FF464AF84F83D708C
S31508000F9084F83E5084F83C50CBE70220C9E70000AD
S31508000FA0020010000000FFFF0400010018000020E6
S31508000FB02DE9FF4F83B09A46DDE91197934604461B
S31508000FC0DDF84080FFF7FCFD054694F83D00202833
S31508000FD07FD11923012240492046009501F03CFAA9
S31508000FE0002876D194F83C00012872D0012084F8B4
S31508000FF03C0020680168C90703D1016841F0010176
S3150800100001602068016821F400610160212084F8EC
S315080010103D00402084F83E0000262664C4F824805B
S31508001020A4F82A90608D20852C48E062CDE90075E9
S3150800103053465A462046049901F08EF970B930E0B5
S315080010402A463946204601F0E5FA58B1206C0428AC
S3150800105004D12068016841F400710160012007B0DD
S31508001060BDE8F08F606A216800780861606A401CF4
S315080010706062218D491E89B22185628D521E628564
S3150800108022685369DB435B070BD469B100781061AA
S31508001090606A401C6062208D401E2085608D401E5F
S315080010A06085208D0028CBD12A463946204601F096
S315080010B0A7F90028CAD154F83D0B016841F400711C
S315080010C00160202004F81E09E67766770020C6E747
S315080010D0FFE70220C3E70000020010000000FFFF40
S315080010E010B586B000210091019102910391006824
S315080010F00F4988421AD10F4CA06940F00800A06138
S31508001100A069694600F008000490C02000901220EB
S315080011100190032003900848FFF762FCE06940F459
S315080011200010E061E06900F40010049006B010BDFC
S315080011300054004000100240000C0140024881683B
S3150800114002781144816070471C000020074810B5DA
S31508001150016841F010010160032000F0A7F80F2094
S3150800116000F006F800F050F8002010BD00200240FC
S3150800117030B50546204887B0C16941F00101C16113
S31508001180C06906A900F00100009001A800F036F930
S315080011900498B8B100F052F9400018494FF080425F
S315080011A0B0FBF1F11648491E0260416040F2E73291
S315080011B00021C0E903218160816100F075FB04000C
S315080011C003D015E000F03AF9E7E70D4800F0AEFB6A
S315080011D004000DD11C2000F03BF8102D07D2002288
S315080011E029461C2000F042F80648056000E0012464
S315080011F007B0204630BD00000010024040420F00F4
S31508001200FC000020200000200F4808B5816941F045
S3150800121001018161816901F001010091C16941F013
S315080012208051C161C069002200F0805000900F21F2
S31508001230901E00F01BF80548416821F0E06141F076
S315080012400071416008BD0000001002400000014026
S31508001250002809DB00F01F020121914040098000A7
S3150800126000F1E020C0F8001170470000F0B40E4B02
S315080012701B680C46C3F30223C3F10705042D00D9E6
S315080012800425191D072901D2002300E0DB1E0126CB
S3150800129006FA05F1491E214099409E40761E1640E1
S315080012A03143F0BC01F0F5BF0CED00E0064900F053
S315080012B0070208684FF6FF03184040EA0220034A6F
S315080012C010430860704700000CED00E00000FA05C6
S315080012D02DE9F0470F46050061D0434E306800F00F
S315080012E00700B84209D2306820F00700384330605A
S315080012F0306800F00700B84251D128683B4C810796
S3150800130012D5400703D5606840F4E060606028782D
S31508001310000703D5606840F4605060606068A9689B
S3150800132020F0F000084360602878C00728D0686875
S31508001330012810D02168022810D0890700292EDA42
S31508001340616821F0030101436160FFF739FC8046BB
S3150800135041F288390DE021688903EFE78901EDE755
S31508001360FFF72EFCA0EB0801494502D90320BDE88A
S31508001370F0876068696800F00C00B0EB810FEFD168
S31508001380306800F00700B8420BD9306820F0070033
S3150800139038433060306800F00700B84201D00120B9
S315080013A0E5E72878400705D56068E96820F4E06035
S315080013B0084360602878000706D56068296920F424
S315080013C0605040EAC100606000F058F86168084A59
S315080013D0C1F30311515CC840064908600648006815
S315080013E0FFF7C6FE0020C2E70020024000100240B8
S315080013F0044E000818000020200000200F2202607A
S315080014000C4A536803F003034360536803F0F00380
S315080014108360536803F4E063C36052684FF4E06383
S3150800142003EAD20202610448006800F00700086077
S315080014307047000000100240002002400448054999
S3150800144000684968044AC1F30221515CC8407047E4
S315080014501800002000100240144E000804480549F0
S3150800146000684968044AC1F3C221515CC840704704
S315080014701800002000100240144E00080E4A516859
S315080014800E4801F00C03042B11D0082B0FD10C4881
S31508001490C1F38343C903C05C0AD55168084AC1F33E
S315080014A04041921E515C054A5043B0FBF1F070472B
S315080014B004494843704700000010024000127A00B1
S315080014C01E4E000800093D002DE9F84F040070D0B3
S315080014D02078C04DC00749D06868C0F3810001284C
S315080014E007D06868C0F38100022809D16868C0037C
S315080014F006D52868800339D560680028E7D035E026
S315080015006068B0F5803F0BD010B1B0F5A02F11D0B0
S31508001510286820F480302860286820F4802002E0BB
S31508001520286840F480302860606890B1FFF748FB6F
S3150800153006460AE0286840F480202860F0E700BFE5
S31508001540FFF73EFB801B642873D828688003F7D50D
S315080015500CE0FFF735FB064605E000BFFFF730FB5A
S31508001560801B6428F0D828688003F7D420789A4E20
S3150800157080074FF001094FF0000839D5686810F068
S315080015800C0F07D06868C0F38100022809D1686883
S31508001590C00306D42868800714D52069012808D115
S315080015A010E02069B0B1C6F80090FFF709FB0746BE
S315080015B005E00AE1FFF704FBC01B0228C4D8286827
S315080015C08007F7D52868616920F0F80040EAC1006D
S315080015D028600DE0C6F80080FFF7F2FA074604E037
S315080015E0FFF7EEFAC01B022823D828688007F7D42D
S315080015F0207800072CD57948A169D9B1C0F80090A0
S31508001600FFF7DEFA074604E0FFF7DAFAC01B0228FE
S315080016100FD8686A8007F7D571484FF4FA51006801
S31508001620B0FBF1F0009000BF0098411E0091FAD27D
S315080016300EE080E0C0F80080FFF7C2FA074604E033
S31508001640FFF7BEFAC01B022875D8686A8007F7D468
S315080016502078400760D5E8690027C00008D4E86903
S3150800166040F08050E861E869012700F0805000905A
S315080016705C480168C90513D40168834641F4807142
S315080016800160FFF79DFA824606E000BFFFF798FA69
S31508001690A0EB0A0064284ED8DBF80000C005F5D593
S315080016A0E06801280AD008B1052813D0286A20F076
S315080016B001002862286A20F0040002E0286A40F047
S315080016C001002862E06841F2883B98B1FFF778FA92
S315080016D082460BE0286A40F004002862EEE700BF65
S315080016E0FFF76EFAA0EB0A0159455AD8286A80070F
S315080016F0F6D50CE0FFF764FA824605E0FFF760FAD4
S31508001700A0EB0A0159454CD8286A8007F6D41FB1C0
S31508001710E86920F08050E861E06988B36968C1F338
S315080017208101022944D00228C6F8608004D0FFF758
S3150800173047FA044638E034E0FFF742FA074604E081
S31508001740FFF73EFAC01B02282BD828688001F7D479
S31508001750206AB0F5803F05D16868A16820F400309A
S3150800176008436860D4E908010843696821F47411DC
S3150800177008436860C6F86090FFF722FA044606E058
S3150800178025E000BFFFF71CFA001B022809D82868C5
S315080017908001F7D51BE000BFFFF712FA001B0228ED
S315080017A002D90320BDE8F88F28688001F4D40EE03A
S315080017B00128F7D06868226A00F48031914204D182
S315080017C0616A00F47010884201D00120EAE700201F
S315080017D0E8E700000010024000004242800442424E
S315080017E018000020007000407047704710B590F848
S315080017F03C20012A22D0012280F83C20CA688C6845
S3150800180022F4407222434C6822F4806222430C6818
S3150800181022F4006222430C6922F4805222434C6966
S3150800182022F400522243C969002322F480420A4363
S3150800183001684A6480F83C30002010BD022010BDC3
S3150800184070B590F83C20012A26D0012480F83C4047
S31508001850022280F83D2003685A689D6822F07006C7
S315080018600A6832435A600D4B02689A4208D0B2F1B0
S31508001870804F05D00A4B9A4202D00A4B9A4204D1AD
S31508001880496825F080031943916080F83D4000219E
S3150800189080F83C10084670BD022070BD002C01403F
S315080018A0000400400008004010B5040003D094F876
S315080018B03D0010B107E0012010BD002084F83C006F
S315080018C0204600F01FF8022084F83D00211D2068FC
S315080018D001F0B8F9012084F8460084F83E0084F83F
S315080018E03F0084F8400084F8410084F8420084F8F8
S315080018F0430084F8440084F8450084F83D0000203D
S3150800190010BD000008B500680649884208D1064897
S31508001910816941F400618161806900F4006000908A
S3150800192008BD0000002C01400010024090F83D1050
S31508001930012901D001207047022180F83D10016875
S31508001940CA6842F00102CA6000680B49884208D09A
S31508001950B0F1804F05D00949884202D0084988422B
S3150800196004D1816801F00701062903D0016841F016
S315080019700101016000207047002C0140000400406E
S315080019800008004070B5044690F83C000025012880
S3150800199017D0012684F83C60022084F83D002068B0
S315080019A0826822F0770222F47F4282600868502813
S315080019B038D00DDC20284FD005DC90B3102811D183
S315080019C04AE0022070BD302846D040280AD13BE0C4
S315080019D060282FD070280DD0B0F5805F03D0B0F501
S315080019E0005F12D0012584F83D60002084F83C0091
S315080019F0284670BDCB68D1E90121206801F06BF952
S31508001A002068816841F0770109E0CB68D1E90121B6
S31508001A10206801F060F92068816841F4804181609E
S31508001A20E1E719E0CA684968206801F009FA502117
S31508001A30206806E0CA684968206801F012FA602141
S31508001A40206801F052F9CEE7CA684968206801F0B3
S31508001A50F7F940212068F4E7226801461046F0E7C6
S31508001A6070472DE9F04104460068C66805694FF0DD
S31508001A700007A90713D5B10711D5F91E0161012081
S31508001A802077206880698007204602D0FFF7E8FFA4
S31508001A9004E000F0A5F8204600F037F92777680734
S31508001AA016D5700714D521686FF004000861022066
S31508001AB020772068806910F4407F204602D0FFF71F
S31508001AC0CFFF04E000F08CF8204600F01EF92777D7
S31508001AD0280715D5300713D521686FF00800086167
S31508001AE0042020772068C0698007204602D0FFF7C7
S31508001AF0B7FF04E000F074F8204600F006F92777EF
S31508001B00E80616D5F00614D521686FF010000861AE
S31508001B10082020772068C06910F4407F204602D04C
S31508001B20FFF79EFF04E000F05BF8204600F0EDF8B2
S31508001B302777E80708D0F00706D021686FF001007C
S31508001B400861204600F030F9280608D5300606D583
S31508001B5021686FF0800008612046FFF745FE680699
S31508001B6008D5700606D521686FF040000861204642
S31508001B7000F021F9A8060AD5B00608D521686FF045
S31508001B80200008612046BDE8F041FFF72EBEBDE8FB
S31508001B90F081000000B585B0002100910191029105
S31508001BA0039100680B49884212D10B48816941F0BC
S31508001BB0040181618069694600F0040004904FF4CD
S31508001BC0807000900220019003900448FEF708FFF9
S31508001BD005B000BD002C014000100240000801407D
S31508001BE0704770B5044690F83C0000260D4601285B
S31508001BF00FD0012084F83C006AB1042A1DD0082AB7
S31508001C002FD00C2A3FD00126002084F83C0030460D
S31508001C1070BD022070BD206801F070F820688169E7
S31508001C2041F0080181612068816921F00401816120
S31508001C30206881692A69114311E0206801F086F855
S31508001C402068816941F4006181612068816921F415
S31508001C5080618161206881692A6941EA022181617E
S31508001C60D2E7206801F09EF82068C16941F00801B2
S31508001C70C1612068C16921F00401C1612068C16998
S31508001C802A69114311E0206801F0B8F82068C16993
S31508001C9041F40061C1612068C16921F48061C161B4
S31508001CA02068C1692A6941EA0221C161ACE710B519
S31508001CB0040003D094F83D0010B107E0012010BDE0
S31508001CC0002084F83C00204600F01EF8022084F824
S31508001CD03D00211D206800F0B5FF012084F846006C
S31508001CE084F83E0084F83F0084F8400084F84100F8
S31508001CF084F8420084F8430084F8440084F84500D8
S31508001D0084F83D00002010BD7047704710B50446A2
S31508001D10022249B104290ED0082913D094F84100AB
S31508001D20012816D0012010BD94F83E000128F9D1EB
S31508001D3084F83E200FE094F83F000128F2D184F899
S31508001D403F2008E094F840000128EBD184F84020B1
S31508001D5001E084F841200122206800F0AFFF0F4916
S31508001D602068884203D1426C42F4004242642068EB
S31508001D70884208D0B0F1804F05D00949884202D080
S31508001D800849884204D1816801F00701062903D071
S31508001D90016841F001010160002010BD002C0140DE
S31508001DA000040040000800400068B0F1804F01D1EF
S31508001DB0FFF7C4B97047704770477047F8B50168B0
S31508001DC004460868CA684B6910F00F0F4FF0000503
S31508001DD059D003F0010602F49077374365D0C1075E
S31508001DE005D0D10503D5616C41F001016164410755
S31508001DF005D5D90703D0616C41F0020161648107FA
S31508001E0005D5D90703D0616C41F004016164010767
S31508001E1007D502F02001314303D0616C41F0080177
S31508001E206164616C00293AD0800604D5900602D513
S31508001E30204601F057F820684069616CC0F38010AD
S31508001E40090700D460B3204601F025F820684069E8
S31508001E50400621D52068143050E8001F21F04001C3
S31508001E6040E80012002AF5D1E06BA8B16D4941633C
S31508001E70E06BFEF769FD002811D0E06B416B01B0FD
S31508001E80BDE8F040084783060FD593060DD52046D2
S31508001E90BDE8F84001F026B82046FFF78EFFF8BDEA
S31508001EA02046FFF78AFF6564F8BD266B2023012EBE
S31508001EB07CD1C6067AD5D60678D5086848680090D3
S31508001EC048694FF00206400640D5E16B086840684D
S31508001ED00004000CE8D0A28D8242E5D9E085886925
S31508001EE020282DD020680C3050E8001F21F480717E
S31508001EF040E80012002AF5D12068143050E8001F87
S31508001F0021F0010140E80012002AF5D120681430BA
S31508001F1050E8001F21F0400140E80012002AF5D1E0
S31508001F2084F84230256320680C3050E8001F21F001
S31508001F30100140E80012002AF5D1E06BFEF7E1FC3B
S31508001F406663A08DE18D401A81B22AE0A08DE18DED
S31508001F50401A81B2E08D0028A6D00029A4D02268B4
S31508001F600C3252E8000F20F4907042E80007002F68
S31508001F70F5D12068143050E8002F22F0010240E81D
S31508001F800027002FF5D184F84230256320680C30ED
S31508001F9050E8002F22F0100240E80023002BF5D16C
S31508001FA066632046FFF708FFF8BDFFE705062BD551
S31508001FB0150629D594F841002128F5D1A068B0F571
S31508001FC0805F01D12069B0B1206A411C2162216875
S31508001FD000784860E08C401E0004000CE084E3D1E1
S31508001FE02068C16821F08001C1602068C16841F09D
S31508001FF04001C160D8E7206A0088C0F3080048603D
S31508002000206A801C2062E5E74006CDD55006CBD570
S31508002010CA68204622F04002CA6084F8413000F0BF
S3150800202003F9C1E7872E000870B5040004D094F8B8
S315080020304100002510B106E0012070BD84F840502B
S31508002040204600F023F8242084F841002068C1685F
S3150800205021F40051C160204600F0A6FF20680169FE
S3150800206021F4904101612068416921F02A0141610A
S315080020702068C16841F40051C1606564202084F875
S31508002080410084F842006563002070BD30B585B014
S315080020900024009401940294039400681849884225
S315080020A02CD11848816941F480418161816901F424
S315080020B080410491816941F0040181618069124D72
S315080020C000F0040004904FF4007000900220019084
S315080020D00320039069462846FEF782FC2815CDE9B9
S315080020E00004694628460294FEF77AFC0022052178
S315080020F02520FFF7BBF82520FFF7AAF805B030BD65
S3150800210000380140001002400008014090F84230B3
S31508002110202B01D00220704721B11AB10023036396
S3150800212000F09EBF0120704738B500681249884202
S3150800213020D1124900200C46034600906A46E06802
S3150800214002F00EFA012802D02069401C2061012203
S315080021500A490B48FFF7DAFF08B1FEF7D0FB0098EB
S31508002160002807D007494FF080500860BFF34F8F0B
S31508002170BFF36F8F38BD0000003801400000002013
S315080021808C01002004ED00E02DE9F843044690F8A0
S315080021904100984616460D46202802D00220BDE882
S315080021A0F88385B17EB100206064212084F841005F
S315080021B0FEF706FDA6848146E684A0682027B0F5CA
S315080021C0805F02D003E00120E9E7206910B12E46BE
S315080021D000250EE000260CE08021204600F05BFF7B
S315080021E0A8B9C6B116F8010B21684860E08C401EF4
S315080021F0E084E08C4B464FF00002CDF800800028C2
S31508002200EAD14FF04001204600F045FF40B184F87E
S3150800221041700320C3E735F8020BC0F30800E3E773
S3150800222084F841700020BAE77047FEE701684A69FA
S31508002230D24352050FD46FF480624A61002140F8F8
S31508002240301F202242738173026942F00402026140
S315080022500173012070470020704700002DE9F84FF0
S315080022600446006889460B9D01689846174641F45E
S31508002270806101602068016841F480710160009501
S315080022804FF0011B0022594620460A9B00F0E4F84D
S315080022904FF4007A40B120680068C00501D5C4F83B
S315080022A040A00320BDE8F88F216809F0FE00086108
S315080022B02B46284920460A9A00F016F9F0BB2068F2
S315080022C04169806900902A4620460A9900F0A2F9D9
S315080022D040B1206C04283AD12068016841F40071A5
S315080022E0016034E0FEB2B8F1010F09D02168380A5E
S315080022F008612A4620460A9900F08CF90028E8D198
S31508002300206806612A4620460A9900F083F90028C3
S31508002310DFD12068016841F48071016000950022D0
S31508002320594620460A9B00F097F80028B3D1216841
S3150800233009F0FF0040F00100086100E007E02B46C5
S31508002340044920460A9A00F0CFF80028AAD00120AE
S31508002350A8E70000020001002DE9F84304460068DA
S315080023600D46DDE9089701689846164641F48071DE
S3150800237001604B4600224FF001112046009700F0FD
S315080023806BF848B120680068C00502D54FF40070A4
S3150800239020640320BDE8F883216805F0FE00086183
S315080023A03B464A461549204600F09EF888B92068FB
S315080023B04169806900903A464946204600F02AF964
S315080023C048B1206C042804D12068016841F40071E2
S315080023D001600120DEE7F5B2B8F1010F09D02168E6
S315080023E0300A08613A464946204600F013F90028A3
S315080023F0E7D1206805610020CCE700000200010053
S3150800240070B516460D4604461EE02046FFF70EFF39
S3150800241008B1012070BD681C16D0FEF7D1FB801BE1
S31508002420A84200D885B920684069C04340070BD543
S31508002430002044F8300F20216173A073216941F010
S31508002440200121612073E4E720684069C043400702
S31508002450DBD4002070BD00002DE9F04798461746EA
S315080024600D460446C1F30746DDF820902AE000BF72
S31508002470B8F1FF3F26D0FEF7A3FBA0EB09014145C3
S3150800248002D8B8F1000F1DD12068012E16D0806938
S3150800249025EA00000004000C12D00020B84211D131
S315080024A0002044F8300F20216173A073216941F0A0
S315080024B02001216120730120BDE8F0874069E7E724
S315080024C00120EBE72068012E0AD0806925EA000082
S315080024D00004000C06D00020B842C9D00020EBE763
S315080024E04069F3E70120F7E72DE9F04798461646D5
S315080024F00D4604464FF000094FF0200AC1F307477E
S3150800250023E020684069C043400515D42068016867
S3150800251041F40071016021686FF480604861C4F875
S31508002520309084F83DA084F83E90216C41F0040177
S31508002530216484F83C9021E0701C06D0FEF740FB2D
S31508002540A0EB0800B04203D816B1012F1FD021E036
S315080025502068012F15D0806925EA00000004000CC8
S3150800256018D000BF44F8309F84F80DA084F80E9068
S31508002570216941F02001216184F80C900120BDE811
S31508002580F087406925EA00000004000CEAD12068BB
S31508002590406901E02068806925EA00000004000C13
S315080025A0AFD1ECE72DE9F041002590460E460446EA
S315080025B0202728E04069C043C0060CD454F8301BD5
S315080025C06FF01000486144F810596777A577206ABC
S315080025D02062257714E0FEF7F3FAA0EB0800B04274
S315080025E000D886B920684069C04340060BD544F830
S315080025F0305F6773A573206940F02000206125735A
S315080026000120BDE8F08120684169C9434906D1D453
S315080026100020F6E770B516460D4604461EE020462D
S31508002620FFF704FE08B1012070BD681C16D0FEF73E
S31508002630C7FA801BA84200D885B920684069C043FC
S3150800264000060BD5002044F8300F20216173A073D3
S31508002650216941F0200121612073E4E7206840697F
S31508002660C0430006DBD4002070BD0000002096B0F1
S3150800267006468DF828000546642001F0F1FB01277F
S315080026800AA8CDE9000714243B467522D0210294F6
S315080026904548FEF75FFB18B99DF8280068280DD055
S315080026A0142242A10DA8FDF73CFF642312220DA9AE
S315080026B0434800F02FFD002001F00CFD8DF81C703A
S315080026C0B846384607AFCDE90070A14601236B220C
S315080026D0D02102943448FEF76BFC08B1FEF70FF9D7
S315080026E0642001F0BDFB37A0002400680B9036A0DB
S315080026F00DF12C0B00680DF1300A0C901AF8040045
S315080027008DF81C008DE880031BF804200123D021D6
S315080027102548FEF74DFC08B1FEF7F1F8641C042CB9
S31508002720ECD302F075F903AC05274FF00E091290A9
S31508002730CDE9004901233B22D0211B480297FEF729
S3150800274009FB28B16D1C0A2112A801F0AFFBEFE7BF
S31508002750BDF80C00761C90FA90F8BDF80E00ADF89E
S31508002760348090FA90FCBDF81000ADF836C043BA34
S31508002770BDF81400ADF8383042BABDF81600ADF809
S315080027803A2041BABDF81800ADF83C1040BAADF889
S315080027903E000E48CDE91065022300220DA9806887
S315080027A001F02EFECFE70000A80000204552522077
S315080027B0494D55206964656E746974790D0A00007F
S315080027C08C0100201A191B1C0309000000000020B8
S315080027D01CB5012001F070FD264C606108B9FEF7B2
S315080027E08EF808210022084601F071FD606008B9DC
S315080027F0FEF785F800220121802001F068FDE060DF
S3150800280008B9FEF77CF800221421012001F05FFDCB
S31508002810A06008B9FEF773F800240420CDE9000487
S315080028208201234614A1154802F08CF8012801D02C
S31508002830FEF765F80220CDE9000400234FF4C072C4
S315080028400FA1114802F07EF8012801D0FEF757F8CB
S315080028500320CDE9000400234FF400720BA10C48B5
S3150800286002F070F8012803D0BDE81C40FEF747B80F
S315080028701CBD00000000002050574D00212B000809
S31508002880554152540000000059310008494D550081
S315080028906D2600080D4808B5816941F0200181615F
S315080028A0816901F020010091816941F0040181618B
S315080028B0816901F004010091816941F00801816193
S315080028C0806900F00800009008BD00000010024072
S315080028D00D4810B50B4901600C49416000214FF4C1
S315080028E080428160C0E9031241618161C161016270
S315080028F0FEF76CF9002803D0BDE81040FDF7FFBFCE
S3150800290010BD000000540040A8000020A086010069
S3150800291010B596B000240F94109411941294139441
S315080029201C2108A81494FDF736FE20216846FDF7F9
S3150800293032FE2848264901604721C0E9011440F2C1
S31508002940E731C0E9031444618461FEF7ADFF08B1BD
S31508002950FDF7D5FF4FF480500F900FA91D48FFF7DC
S3150800296011F808B1FDF7CBFF1A48FFF7A0F908B12F
S31508002970FDF7C5FF139413A916481494FEF760FFD4
S3150800298008B1FDF7BCFF6020CDE908040A940B9452
S315080029900C940D94002208A90E480E94FFF721F90D
S315080029A008B1FDF7ACFF00944FF40050CDE90440A0
S315080029B0029401940394694606480794FEF716FFA5
S315080029C008B1FDF79CFF0348FFF7E4F816B010BD01
S315080029D0002C0140440100200C4810B50A4901604A
S315080029E04FF4E1314160002181600C22C160C0E9E9
S315080029F004128161C161FFF717FB002803D0BDE807
S31508002A001040FDF77CBF10BD003801408C01002046
S31508002A10FEE7FEE77CB504460078422803D0542832
S31508002A2001D02AA442E0651C2846FDF716FD01469A
S31508002A30401E042801D8012200E00022002005E0FB
S31508002A402B5C303B0A2B00D30022401C884202D262
S31508002A50002AF5D10EE06AB10A2200212846FDF7C0
S31508002A60C3FC2178422907D0542909D042290FD01E
S31508002A7001210EE019A419E0B0F57A7F06D807E01F
S31508002A80A0F1C80142F249629142F1D317A40DE0C0
S31508002A900021019018488DF8001000231A4669464F
S31508002AA0406801F0ADFC01280ED014A42046FDF7BD
S31508002AB0D4FC82B264232146154800F02BFB00287B
S31508002AC001D0FDF71CFF7CBD12A4EFE7455252204A
S31508002AD0636F6D6D616E640D0A00000045525220E9
S31508002AE06E756D6265720D0A00000000455252202F
S31508002AF072616E67650D0A0000000020455252207B
S31508002B0071756575652066756C6C0D0A00000000A8
S31508002B108C0100204F4B207175657565640D0A00A0
S31508002B200EB501F075FF4FF47A79002400904E46F1
S31508002B304FF4FA6521461F48FFF7E8F808B1FDF794
S31508002B40DEFEDFF87480002742F2486A002201A9F7
S31508002B50D8F8040001F064FD012813D19DF804009B
S31508002B6010B101280BD104E00298484507D806465B
S31508002B7005E00298C838504501D8029D00247F1CFC
S31508002B80082FE3D36808844202D206FB04F102E068
S31508002B90291B7143281AB1FBF0F0064909684863F6
S31508002BA0641DAC4200D300240521684601F07EF975
S31508002BB0C9E70000440100200000002010B54FF0CE
S31508002BC0E020006901F016FF012803D0BDE8104097
S31508002BD001F05CBB10BD30B58FB028216846FDF703
S31508002BE0DAFC14210AA8FDF7D6FC01210804CDE970
S31508002BF000100024029402250491CDE907504FF4F1
S31508002C00E01009906846FEF75FFC08B172B6FEE769
S31508002C100F20CDE90A054FF48060CDE90C4002216A
S31508002C200AA80E94FEF754FB002801D072B6FEE7F8
S31508002C300FB030BD704700000148FEF712BF000014
S31508002C40FC000020F0B50268194B1A4C1A4D4FF0DB
S31508002C508047984205D0B84203D0A04201D0A84286
S31508002C6003D122F070064A683243984205D0B8422A
S31508002C7003D0A04201D0A84203D122F44074CA6806
S31508002C8022434C6922F08002224302608A68C262AB
S31508002C900A688262984201D109690163012141618A
S31508002CA00169C90703D0016921F001010161F0BD7D
S31508002CB0002C0140000400400008004010B501F057
S31508002CC01F030121046A99408C430462016A9A40F1
S31508002CD01143016210BD10B5846842EA032224F448
S31508002CE07F440A432243826010BD826822F0700244
S31508002CF00A4342F0070181607047000030B5036A55
S31508002D00026A22F0010202624268846924F07305AD
S31508002D100C682C4323F002058B682B430A4DA84206
S31508002D200BD123F00805CB6822F440722B434D697A
S31508002D3023F0040315438A692A434260846149687B
S31508002D404163036230BD0000002C014030B5026AC1
S31508002D50036A23F010030362436884690D6824F448
S31508002D60E64444EA05248D6822F0200242EA051268
S31508002D700B4DA8420ED1CD6822F0800242EA051218
S31508002D804D6923F4406343EA85038D6922F04002C6
S31508002D9043EA85034360846149688163026230BD02
S31508002DA0002C014030B5036A026A22F4807202627E
S31508002DB04268C46923F4007324F073050C682C4335
S31508002DC08D6843EA05230C4DA8420ED1CD6823F43D
S31508002DD0006343EA05234D6922F4405242EA05128C
S31508002DE08D6923F4806342EA05124260C46149682A
S31508002DF0C163036230BD0000002C014030B5046A8F
S31508002E00026A22F4805202624268C3690D6823F49A
S31508002E10E64343EA05238D6824F4005444EA05345E
S31508002E20064DA84204D14D6922F4804242EA851231
S31508002E304260C36149680164046230BD002C0140E8
S31508002E4010B5036A046A24F001040462846924F054
S31508002E50F00444EA021423F00A020A438461026277
S31508002E6010BD10B5036A046A24F01004046284696C
S31508002E7023F0A00324F4704444EA023243EA011121
S31508002E808261016210BD10B5406A0021C185C18406
S31508002E90FEF793FF10BD01680C3151E8002F22F4AC
S31508002EA0907241E80023002BF5D10168143151E8EE
S31508002EB0002F22F0010241E80023002BF5D1016B17
S31508002EC0012909D101680C3151E8002F22F01002BE
S31508002ED041E80023002BF5D1202180F8421000217B
S31508002EE00163704708B590F84210222901D00220E4
S31508002EF008BD82684FF480539A4201D1016921B115
S31508002F00816A9A421BD04AB10AE00268816A52680D
S31508002F10C2F308020A80816A891C08E0026972B154
S31508002F200268526802F07F020A70816A491C81624F
S31508002F30C18D491E0904090CC18503D01BE002682E
S31508002F405268F1E70168CA6822F02002CA6001687F
S31508002F50CA6822F48072CA6001684A6922F00102CE
S31508002F604A61202180F8421000214163026B012A40
S31508002F7003D0FFF7D9F8002008BD016301680C31BA
S31508002F8051E8002F22F0100241E80023002BF5D16A
S31508002F9001680A68D20602D50A6849680091818DD7
S31508002FA0FEF70AFFE7E7000070B504460068016906
S31508002FB0E26821F44051114301612169A068084380
S31508002FC0616908432168CA6841F20C639A4302435F
S31508002FD0CA6020684169A26921F4407111434161C0
S31508002FE01E492068884202D1FEF738FA01E0FEF74A
S31508002FF025FA00EBC00101EB00126068642180002D
S31508003000B2FBF0F3B3FBF1F36FF018067343B2FBB0
S31508003010F0F5B2FBF0F605EB8305322303EB051555
S31508003020B5FBF1F5B6FBF1F605F0F00505EB06156F
S31508003030B2FBF0F6B2FBF0F0B0FBF1F06FF018025D
S31508003040504306EB800003EB0010B0FBF1F021685B
S3150800305000F00F002844886070BD00000038014069
S3150800306081628285C28500214164222180F842104E
S31508003070016921B10168CA6842F48072CA600168B0
S315080030804A6942F001024A610068C16841F02001BC
S31508003090C160002070472DE9F843984617460D464B
S315080030A00446089E24E0701C22D0FDF789FDA0EB9B
S315080030B00800B0421AD8CEB12068C168490717D5AA
S315080030C0802D15D0402D13D00168C94309070FD4A8
S315080030D001680025406800902046FFF7DCFE0820BE
S315080030E0606484F840500120BDE8F8830320FBE7BC
S315080030F02068006835EA000004D00020B842D2D023
S315080031000020F1E70120F9E70148FEF757BE000065
S315080031108C0100202DE9F0410E4C0F4680461D46D5
S3150800312016466421606901F017FB012802D00320C6
S31508003130BDE8F0812B46324639464046FFF724F86B
S31508003140002305461A461946606901F059F92846CA
S31508003150EEE7000000000020B6B000242546FDF783
S315080031602FFD8046012238493848FEF7CFFF08B1BF
S31508003170FDF7C5FB344F0DF1B0090026002234A92E
S31508003180F86801F04DFA012828D19DF8D0000A28E0
S3150800319003D00D281FD0BDB11DE05DB114222CA1AE
S315080031A06846FDF7BEF96423132269462748FFF7E8
S315080031B0B1FF06E02CB1002109F804102CA8FFF78E
S315080031C029FC0024254606E01F2C03D209F8040032
S315080031D0641C00E00125761C202ECFD3FDF7F0FCF9
S315080031E0A0EB0800C8282BD3FDF7EAFC804600228E
S315080031F007A9B86801F014FA012821D1BDF9200001
S315080032000DF10C0CBDF92630BDF92420BDF92210AC
S315080032108CE80F000B98BDF91E20BDF91C108DE82F
S31508003220070010A280210CA80A9BFDF729F8411E69
S315080032307F2905D282B214230CA90448FFF76AFF36
S31508003240012000F00DFE98E7000000208C01002008
S31508003250455252206C696E6520746F6F206C6F6ED4
S31508003260670D0A00494D55206E3D256C752065721F
S31508003270723D256C7520413A25642C25642C2564FD
S3150800328020473A25642C25642C25640D0A00000085
S31508003290FEE70907090E002804DB00F1E02080F8A4
S315080032A00014704700F00F0000F1E02080F8141DAC
S315080032B07047FDF74BFFFFF78EFCFFF7EBFAFFF7BA
S315080032C007FBFFF725FBFFF787FB00F005F8FFF77D
S315080032D07FFA00F013F8FEE7EFF3058010B16FF000
S315080032E0050070470448016811B14FF0FF30704778
S315080032F001210160002070472800002010B5EFF377
S31508003300058010B16FF0050010BD08480168012955
S3150800331002D04FF0FF3010BD054A002182F8141D77
S315080033200221016000F092FE002010BD2800002056
S315080033300BE000E02DE9F041134C0F460546E66820
S315080033402068001D00F058FC681C07D137B12168B9
S31508003350BDE8F0410D48091D00F09EBC20683544C3
S31508003360B5424560216805D2A06BBDE8F041091D4C
S3150800337000F07ABC606B091D00F076FCA06A8542F5
S3150800338000D2A562BDE8F081580000207C350020F7
S315080033902DE9F041054600F08BFC2D4CA068401C39
S315080033A0A06020682B4F10B1606930B32BE0256010
S315080033B0A068012827D1002606EB860007EB8000C7
S315080033C000F044FC761C382EF6D3234800F03EFC69
S315080033D02148143000F03AFC1F48283000F036FC2B
S315080033E01D483C3000F032FC1B48503000F02EFCE3
S315080033F0194860631430A06305E02068E96AC06A6A
S31508003400884200D82560606A401C60626864E86A81
S315080034102169884200D9206100EB800007EB800013
S31508003420291D00F039FC00F063FC606900280CD007
S315080034302068E96AC06A884207D208494FF0805076
S315080034400860BFF34F8FBFF36F8FBDE8F0810000B0
S3150800345058000020CC3000202C35002004ED00E078
S3150800346038B500F025FC104C2068C8B90F4800F0A4
S31508003470EDFB0E48143000F0E9FB0C48E060143010
S3150800348020610A4B0020F03B009003F15002102106
S315080034900A2000F03DFF206010B105A100F0AAFC4B
S315080034A0BDE8384000F024BC940000208036002097
S315080034B0546D72510000000030B4026C0B46002AAD
S315080034C00BD0C1681144C1608468A14201D3016868
S315080034D0C16030BC1846FCF7DFBF30BC70472DE929
S315080034E0F041856B174604460026026C82B1C7B1C7
S315080034F0E068FCF7D1FFE168206C091AE1602268F0
S31508003500914202D2A168081AE060022F16D017E08D
S315080035102068A8B9A06801F0E5FA06460020A06070
S315080035200EE06068FCF7B8FF216C606808446060CC
S31508003530A168884204D32068606001E005B16D1E69
S315080035406D1CA5633046BDE8F08110B5044690F8B9
S31508003550590058B101280CD002280FD0502080F30A
S315080035601188BFF34F8FBFF36F8FFEE7206B00F014
S31508003570D3FB2046BDE8104000F0CEBB10BD0000CE
S3150800358010484FF42051420706D0C01D0D4920F0BF
S315080035900700411AC1F520510B4A00230144C2E92C
S315080035A000030839183A21F0070111604B600B60D7
S315080035B00B1AC0E9001393604FF000405360506146
S315080035C0704700008C08002044000020144E154C5B
S315080035D0A6F29C474FF08058DFF84C9012E000BFE7
S315080035E000F066FBF068C568281D00F005FBA068BA
S315080035F0401EA0606068401E606000F079FB2846A7
S31508003600FFF7A3FF60680028EAD138680128F9D9CE
S31508003610C9F80080BFF34F8FBFF36F8FF2E7000042
S31508003620683500205800002004ED00E0002807D087
S315080036300021816001600B460A46C16000F0E0BEC9
S315080036407047000070B51D46049C51B1C4F80020AF
S31508003650C4E90F010121204600F08EFE84F84C5083
S3150800366070BD2460F4E700002DE9F05F8846DDE9C7
S315080036700B941546834691009A460A9EA522206B0E
S31508003680FCF781FF6FF00301206B01EB850108440D
S3150800369020F00707780707D0502080F31188BFF37A
S315080036A04F8FBFF36F8FFEE70025B8F1000F0FD0DD
S315080036B05FF00000221818F8001082F8341018F885
S315080036C0001011B1401C1028F4D384F8435001E0CF
S315080036D084F83450382E00D33726E662C4E91365D9
S315080036E0201D00F0BEFA04F1180000F0BAFA2461B1
S315080036F0C6F138006462A061656584F85850524680
S315080037005946384600F066FA2060B9F1000F01D034
S31508003710C9F80040BDE8F09F30B5114900E01146F0
S315080037200A688242FBD34B685C18844203D140681E
S3150800373018444860084643681C18944209D1084C46
S31508003740183C2468A24209D052681A4442600A68A2
S3150800375012680260814200D0086030BD0460F9E753
S315080037604400002070B5002441600B4D0061914271
S3150800377006D8D11A8269914206D2011D286907E046
S315080037809A4203D2994201D3012403E0011DE86855
S3150800379000F06AFA204670BD9400002010B5044671
S315080037A000F086FAA06B28B15FF0000400F0A0FADA
S315080037B0204610BD0124F9E730B589B03C4D6EE0CE
S315080037C00498002806DADDE90601059A9047049868
S315080037D0002864DB069C606910B1201D00F00CFA15
S315080037E003A800F0D7F8024604980A2857D2DFE85B
S315080037F000F00505052D334A05052D3394F82800F4
S3150800380040F0010084F828000599A069059B014449
S315080038102046FFF7A7FF68B3216A2046884794F831
S31508003820280040073BD5002000900598A169002391
S3150800383042181946204601F09BFAD8B9502080F361
S315080038401188BFF34F8FBFF36F8FFEE714F8280F69
S3150800385020F00100207022E094F8280040F00100D2
S3150800386084F828000598A06128B1811813462046D7
S31508003870FFF778FF13E0502080F31188BFF34F8FCE
S31508003880BFF36F8FFEE794F82800810703D420461C
S3150800389000F042FA03E020F0010084F82800002234
S315080038A004A9286800F0BCFE002889D109B030BDFB
S315080038B0940000202DE9FC410F46054600F058FC0F
S315080038C001A800F067F80446019818B101F0BEF99E
S315080038D0BDE8FC81254EAFB130690068D0B300273A
S315080038E0291B3A46306800F099FA01F0AFF900282A
S315080038F0EED11F494FF080500860BFF34F8FBFF3DA
S315080039006F8FE5E7A542EBD801F0A0F9F0682746E6
S31508003910C068C468201D00F06FF994F828004107B4
S3150800392019D5A0692B4641193A462046FFF71AFFD2
S31508003930A8B100200346014600902A46204601F019
S3150800394017FA60B9502080F31188BFF34F8FBFF381
S315080039506F8FFEE707E020F0010084F82800216A4F
S3150800396020468847B4E70127BAE7000094000020FC
S3150800397004ED00E00648416B096829B1416BC96846
S31508003980C9684968816270474FF0FF31FAE700005D
S315080039905800002070B5054601F03AF8064E044670
S315080039A0B068844203D200F009F8012000E0002044
S315080039B028602046B46070BD94000020F8B5194D03
S315080039C020E0C068C4680668201D00F015F9216A61
S315080039D02046884794F82800400713D5A069304444
S315080039E0B04206D924616060211DE86800F03CF900
S315080039F008E000200346014600903246204601F0C2
S31508003A00B7F938B1E86801680029DAD12969C5E942
S31508003A100310F8BD502080F31188BFF34F8FBFF312
S31508003A206F8FFEE79400002008484068401C4FF05E
S31508003A30500080F3118804D0BFF34F8FBFF36F8F08
S31508003A40FEE7BFF34F8FBFF36F8FFEE74C000020F2
S31508003A50074CE068016841B1C0680021D0F8000051
S31508003A60FFF728FFFFF7A8FEF3E701210020F7E795
S31508003A70940000202DE9F041044600F019F994F964
S31508003A80455004F1240609E0606A48B1304601F061
S31508003A90A5F808B100F058FA6D1E6DB2002DF3DCDA
S31508003AA04FF0FF3684F8456000F022F900F000F97F
S31508003AB094F9445004F1100709E0206948B13846E2
S31508003AC001F08CF808B100F03FFA6D1E6DB2002DBA
S31508003AD0F3DC84F84460BDE8F04100F009B9000061
S31508003AE02DE9F0410546002700F042FB324E3068CA
S31508003AF008B9FFF745FD706905424ED1C5B30835CB
S31508003B0068070ED005F00700C0F1080005446807ED
S31508003B1007D0502080F31188BFF34F8FBFF36F8F04
S31508003B20FEE72DB37068854237D82348183001461A
S31508003B300C6801E020460C466168A94202D2216859
S31508003B400029F7D131688C4227D0076821680160BF
S31508003B5060680837411B10290FD96019420708D039
S31508003B60502080F31188BFF34F8FBFF36F8FFEE7A6
S31508003B7013E041606560FFF7CFFD61687068401A21
S31508003B807060B268904200D2B0607069014300204C
S31508003B90C4E90001F068401CF06001F057F87807A6
S31508003BA007D0502080F31188BFF34F8FBFF36F8F74
S31508003BB0FEE73846BDE8F0812C0000200449086875
S31508003BC018B10868026D521C026508687047000043
S31508003BD05800002010B5031F4FF080741C601B1F8F
S31508003BE021F001011960191F024B0B601439403886
S31508003BF00A6010BD293A0008D0E9013201699A60C5
S31508003C00D0E901235A604A68824201D182684A6033
S31508003C10002202610868401E0860086870470000B4
S31508003C20034B036003F15C00086080201060704756
S31508003C30D4010020044B036003F15C0008604FF4D4
S31508003C4080701060704700003004002000F1080101
S31508003C504FF0FF32C0E90112C16001610021016025
S31508003C60704700210161704730B50B685A1C02D0B5
S31508003C7000F1080202E0026904E022465468256859
S31508003C809D42FAD953684B6099608A605160086111
S31508003C900168491C016030BD42684A6093688B60C0
S31508003CA093685960916008610168491C0160704712
S31508003CB0502080F31188BFF34F8FBFF36F8F0A49E7
S31508003CC04868401C486001280CD10848006810F074
S31508003CD0FF0F07D0502080F31188BFF34F8FBFF333
S31508003CE06F8FFEE7704700004C00002004ED00E0EF
S31508003CF00849486828B1401E486001D180F31188F8
S31508003D007047502080F31188BFF34F8FBFF36F8F32
S31508003D10FEE700004C00002070B500282AD0164D9A
S31508003D20A0F1080460686969084207D1502080F349
S31508003D301188BFF34F8FBFF36F8FFEE722683AB142
S31508003D40502080F31188BFF34F8FBFF36F8FFEE7C4
S31508003D508843606000F00CFA606869680844686027
S31508003D602046FFF7D9FC2869401C2861BDE8704049
S31508003D7000F06CBF70BD00002C0000204FF0E02062
S31508003D8000210161816105494FF47A720968B1FB26
S31508003D90F2F1491E416107210161704718000020B0
S31508003DA010B5FCF749FA114910280ED300F1E020A6
S31508003DB090F8F0030A78904207D2502080F31188D1
S31508003DC0BFF34F8FBFF36F8FFEE709480068896816
S31508003DD000F4E060884207D9502080F31188BFF3C9
S31508003DE04F8FBFF36F8FFEE710BD00004C00002019
S31508003DF00CED00E010B5084B002200BF53F8324026
S31508003E001CB1521C082AF9D310BD43F8321003EB33
S31508003E10C201486010BD00008C30002070B5154600
S31508003E200E460446FFF744FF94F944100020491C47
S31508003E3001D184F8440094F94510491C01D184F84D
S31508003E404500FFF755FFA06B28B92A46314604F10D
S31508003E50240000F097F82046BDE87040FFF70ABE38
S31508003E6010B5020014D00F48006B38B1502080F30B
S31508003E701188BFF34F8FBFF36F8FFEE700F078F915
S31508003E8000211046FFF756FA00F0E0FE002807D199
S31508003E9005494FF080500860BFF34F8FBFF36F8F0F
S31508003EA010BD00005800002004ED00E070B50D4676
S31508003EB004000BD095B11E4A106BB8B1502080F3A0
S31508003EC01188BFF34F8FBFF36F8FFEE7502080F343
S31508003ED01188BFF34F8FBFF36F8FFEE7502080F333
S31508003EE01188BFF34F8FBFF36F8FFEE700F040F9DD
S31508003EF0D26823685919934204D98B420AD9914248
S31508003F0002D807E08B42FAD9881A21600021FFF708
S31508003F1011FA00E0216000F099FE002807D1054952
S31508003F204FF080500860BFF34F8FBFF36F8F70BD9F
S31508003F305800002004ED00E002490A6A0260C968D8
S31508003F40416070475800002001490120C861704748
S31508003F505800002010B50C4650B1094909681831B7
S31508003F60FFF782FE2046BDE810400121FFF7E2B9BF
S31508003F70502080F31188BFF34F8FBFF36F8FFEE792
S31508003F805800002070B514460D4668B10A490968FC
S31508003F901831FFF781FE0CB14FF0FF352146284650
S31508003FA0BDE87040FFF7C6B9502080F31188BFF30B
S31508003FB04F8FBFF36F8FFEE75800002070B50400DF
S31508003FC03ED0226DA2B1E06C884200D30146E06A79
S31508003FD0884235D0012A33D11A4D2A6894420FD126
S31508003FE0502080F31188BFF34F8FBFF36F8FFEE722
S31508003FF0502080F31188BFF34F8FBFF36F8FFEE712
S31508004000E162A269002A02DBC1F13801A1610E4E04
S3150800401000EB8000616906EB8000814210D1201D0B
S31508004020FFF7EAFDE06A2969884200D9286100EBB2
S31508004030800006EB8000211DBDE87040FFF72CBE0E
S3150800404070BD000058000020CC30002030B587B085
S315080040500024039405AA04A903A80494FFF7E0FD25
S31508004060DDE903010094CDE90110002315A11748E5
S31508004070059A00F094FC164D0028E8621FD000F05F
S3150800408047FE012809D0401C19D1502080F3118819
S31508004090BFF34F8FBFF36F8FFEE7502080F3118871
S315080040A0BFF34F8FBFF36F8F4FF0FF30A862012029
S315080040B06861EC6007B0BDE8304000F093B807B01F
S315080040C030BD000049444C4500000000CD350008CD
S315080040D05800002070B50446FFF7EAFD214D04B9E3
S315080040E02C68201DFFF788FDA06A18B104F1180096
S315080040F0FFF782FD211D1C48FFF7CEFD94F85800F6
S315080041000026012801D184F85860FFF7F1FD686997
S3150800411028B1FFF7CDFDFFF72DFCFFF7E9FD28686D
S31508004120844213D1686990B1286B38B1502080F366
S315080041301188BFF34F8FBFF36F8FFEE70B494FF020
S3150800414080500860BFF34F8FBFF36F8F70BD06486E
S315080041500068A968884201D12E6070BDBDE870402C
S3150800416000F00EB8580000207C35002004ED00E071
S315080041700248016B491C0163704700005800002083
S31508004180164810B5016B11B10121C16110BD00219E
S31508004190C1610169124A01E0B9B1491E01EB810307
S315080041A052F82330002BF7D001EB810302EB830290
S315080041B002F1080453685B685360A34201D15B6847
S315080041C05360DA680260016110BD502080F31188DF
S315080041D0BFF34F8FBFF36F8FFEE700005800002034
S315080041E0CC3000201CB5264908780190FF200870BD
S315080041F008788DF800009DF800009DF8002000F072
S31508004200F000904207D0502080F31188BFF34F8FFB
S31508004210BFF36F8FFEE79DF800001A4C00F05000C0
S3150800422020700720A06005E09DF8002052008DF858
S315080042300020401E9DF800201206F5D4A060032831
S3150800424007D0502080F31188BFF34F8FBFF36F8FCD
S31508004250FEE74FF44070A060019808700A480168AC
S3150800426041F470010160016841F070410160FFF797
S3150800427085FD00206060FBF7A9FF00201CBD00003B
S3150800428000E400E04C00002020ED00E010B55020CE
S3150800429080F31188BFF34F8FBFF36F8F00F0BEFB1B
S315080042A018B104494FF080500860002080F3118847
S315080042B010BD000004ED00E010B502460021012003
S315080042C000F005F80446FFF7B1F9204610BDF8B529
S315080042D017460E46050013D005FB06F05030FFF7CB
S315080042E0FFFB04000AD0002084F8460004F15002BF
S315080042F03B46314628460094FFF7A4F92046F8BD08
S31508004300502080F31188BFF34F8FBFF36F8FFEE7FE
S3150800431038B5049D18B153B1CAB181B120E0502017
S3150800432080F31188BFF34F8FBFF36F8FFEE75020DE
S3150800433080F31188BFF34F8FBFF36F8FFEE75020CE
S3150800434080F31188BFF34F8FBFF36F8FFEE739B144
S31508004350502080F31188BFF34F8FBFF36F8FFEE7AE
S3150800436050241C46012384F846302B460094FFF758
S3150800437069F9204638BD000070B50D46040025D001
S31508004380FFF796FCD4E90F20216802FB0011A16013
S315080043900021A163216861600A46D4E90F01401E25
S315080043A000FB0121E16021464FF0FF3001F8440F80
S315080043B0487004F110008DB1FFF748FC04F12400A1
S315080043C0FFF744FCFFF794FC012070BD502080F3F2
S315080043D01188BFF34F8FBFF36F8FFEE7216900295E
S315080043E0F0D000F0FBFB0028ECD004494FF08050D9
S315080043F00860BFF34F8FBFF36F8FE3E704ED00E06C
S315080044002DE9FF4782B01D468A464FF00008040092
S3150800441003D0BAF1000F08D011E0502080F31188BC
S31508004420BFF34F8FBFF36F8FFEE7206C38B1502074
S3150800443080F31188BFF34F8FBFF36F8FFEE7022D0E
S315080044400AD1E06B012807D0502080F31188BFF30A
S315080044504F8FBFF36F8FFEE700F0CCFA3F4F4FF058
S3150800446000094FF0805648B9049838B1502080F3B7
S315080044701188BFF34F8FBFF36F8FFEE7FFF718FC66
S31508004480A06BE16B884207D3022D05D00498D0B102
S31508004490B8F1000F1AD01EE02A4651462046FFF70B
S315080044A01EF8616A19B104F1240000F097FB20B1E7
S315080044B03E60BFF34F8FBFF36F8FFFF719FC0120E4
S315080044C006B0BDE8F087FFF713FC22E06846FFF761
S315080044D033FD4FF00108FFF70BFCFFF749FEFFF726
S315080044E0E7FB94F94400401C01D184F8449094F900
S315080044F04500401C01D184F84590FFF7F9FB04A953
S31508004500684600F0E5F930B12046FFF7B3FA00F047
S315080045109DFB0020D4E7FFF7CBFBA06BE16B88423D
S3150800452013D1FFF7E5FB04F110000499FFF712FD1C
S315080045302046FFF79FFA00F089FB00289ED13E60CF
S31508004540BFF34F8FBFF36F8F98E7FFF7D1FB204676
S31508004550FFF790FA00F07AFB90E7000004ED00E020
S315080045602DE9F0471F4690468946040003D0B9F165
S31508004570000F08D011E0502080F31188BFF34F8F49
S31508004580BFF36F8FFEE7206C38B1502080F3118897
S31508004590BFF34F8FBFF36F8FFEE7022F0AD1E06B91
S315080045A0012807D0502080F31188BFF34F8FBFF33F
S315080045B06F8FFEE7FFF7F4FB5020EFF3118680F3C9
S315080045C01188BFF34F8FBFF36F8FA06BE16B8842E3
S315080045D006D3022F04D0002086F31188BDE8F087A1
S315080045E094F94550A06B3A4649462046FEF777FFB0
S315080045F0681C04D06D1C84F845500120ECE7606AFD
S315080046000028FAD004F1240000F0E8FA0028F4D0D3
S31508004610B8F1000FF1D00121C8F80010EDE700004D
S315080046202DE9F747002683B08A46040003D0BAF17D
S31508004630000F08D011E0502080F31188BFF34F8F88
S31508004640BFF36F8FFEE7206C38B1502080F31188D6
S31508004650BFF34F8FBFF36F8FFEE700F0CBF9DFF89C
S31508004660F4804FF000094FF0805748B9059838B1E3
S31508004670502080F31188BFF34F8FBFF36F8FFEE78B
S31508004680FFF716FBA56BC5B151462046FEF714FF8A
S315080046906D1EA563206950B104F1100000F09EFA62
S315080046A028B1C8F80070BFF34F8FBFF36F8FFFF7BD
S315080046B01FFB012006B0BDE8F087059808B11EB1BA
S315080046C006E0FFF715FB27E06846FFF735FC0126ED
S315080046D0FFF70EFBFFF74CFDFFF7EAFA94F94400E3
S315080046E0401C01D184F8449094F94500401C01D13E
S315080046F084F84590FFF7FCFA05A9684600F0E8F843
S31508004700002820460AD0FFF7B5F900F09FFA2046A0
S31508004710FFF744F80028B3D00020CBE7FFF73EF8B0
S3150800472090B104F124000599FFF714FC2046FFF721
S31508004730A1F900F08BFA0028A2D1C8F80070BFF3DF
S315080047404F8FBFF36F8F9BE72046FFF793F900F073
S315080047507DFA95E704ED00E02DE9F343002683B0E2
S315080047600400354609D0206C78B1502080F31188B2
S31508004770BFF34F8FBFF36F8FFEE7502080F311888A
S31508004780BFF34F8FBFF36F8FFEE700F033F9DFF803
S315080047903C814FF000094FF0805748B9049838B16A
S315080047A0502080F31188BFF34F8FBFF36F8FFEE75A
S315080047B0FFF77EFAA06BC8B1401EA063206810B947
S315080047C0FFF7FCF9A060206950B104F1100000F071
S315080047D005FA28B1C8F80070BFF34F8FBFF36F8F83
S315080047E0FFF786FA012005B0BDE8F083049808B102
S315080047F066B10FE03DB1502080F31188BFF34F8FAB
S31508004800BFF36F8FFEE7FFF773FA5DE06846FFF7C1
S3150800481093FB0126FFF76CFAFFF7AAFCFFF748FAA5
S3150800482094F94400401C01D184F8449094F9450059
S31508004830401C01D184F84590FFF75AFA04A9684646
S3150800484000F046F80028204612D0FFF713F900F0CA
S31508004850FDF92046FEF7A2FF0028A9D09DB3FFF771
S3150800486027FA606A50B3206B0068C0F1380126E069
S31508004870FEF794FFE0B1206838B9FFF719FAA06887
S3150800488000F070F90546FFF733FA04F1240004999D
S31508004890FFF760FB2046FFF7EDF800F0D7F9002890
S315080048A086D1C8F80070BFF34F8FBFF36F8F7FE7CD
S315080048B02046FFF7DFF800F0C9F979E70021A0687C
S315080048C0FFF77CFB9FE7FFE700208CE704ED00E09D
S315080048D02DE9F0410C46050011D0C4B1FFF7E8F9FF
S315080048E0174BDA686E682068911B471C17D02F682B
S315080048F01B6A9F4219D0964217D8012410E050200F
S3150800490080F31188BFF34F8FBFF36F8FFEE75020F8
S3150800491080F31188BFF34F8FBFF36F8FFEE7002434
S31508004920FFF7E6F92046BDE8F081884205D9401A26
S3150800493020602846FFF700FBF1E700202060DCE74F
S31508004940580000202DE9FF5F8346DDE90E8799466A
S3150800495016468A469000FFF7C3F805001CD05C206F
S31508004960FFF7BEF8040014D00020256384F8590028
S31508004970CDE90240CDE900874B46324651465846B6
S31508004980FEF772FE2046FEF703FD012004B0BDE8DF
S31508004990F09F2846FFF7C0F94FF0FF30F6E7F0B56D
S315080049A085B0DDE90B640A9DA6B1DCB15C270097EA
S315080049B02663022684F85960002604AFCDE902462C
S315080049C0CDE90057FEF750FE2046FEF7E1FC0498B5
S315080049D005B0F0BD502080F31188BFF34F8FBFF3A9
S315080049E06F8FFEE7502080F31188BFF34F8FBFF318
S315080049F06F8FFEE70548416919B1006B18B10020B1
S31508004A0070470120704702207047000058000020B8
S31508004A100148C06870470000580000202DE9F041A1
S31508004A202E4C0027206B28B1A069401CA06138468F
S31508004A30BDE8F081E668761CE66013D1606B006815
S31508004A4038B1502080F31188BFF34F8FBFF36F8FB3
S31508004A50FEE7606BA16B6163A063206A401C20625D
S31508004A60FEF788FFA06ADFF87880864209D3606B74
S31508004A700068A0B1606BC068C5686868864211D2D4
S31508004A80A0622068C06A00EB800158F8210001285E
S31508004A9000D90127E0690028C9D00127C7E74FF0E8
S31508004AA0FF30EDE7281DFFF7A7F8A86A18B105F14A
S31508004AB01800FFF7A1F8E86A2169884200D9206141
S31508004AC000EB800108EB8100291DFFF7E5F8E86A8D
S31508004AD02168C96A8842CAD30127C8E75800002056
S31508004AE0CC30002070B504004FF0000133D01B4DC8
S31508004AF02868844207D0502080F31188BFF34F8F6F
S31508004B00BFF36F8FFEE7206D38B1401E2065E36C5A
S31508004B10E26A9A421FD040B11DE0502080F3118806
S31508004B20BFF34F8FBFF36F8FFEE7201DFFF764F8C3
S31508004B30E06CE062C0F13800A061E06A2969884249
S31508004B4000D92861064900EB800001EB8000211D91
S31508004B50FFF7A2F80121084670BD000058000020A2
S31508004B60CC30002070B504004FF000002BD0194D52
S31508004B70E16A2A68D26A914226D2A069002804DB33
S31508004B802868C06AC0F13800A061134E01EB8101A4
S31508004B90606906EB8101884211D1201DFFF72CF8C8
S31508004BA02868C06AE0622969884200D9286100EB52
S31508004BB0800006EB8000211DFFF76EF802E02868EA
S31508004BC0C06AE062012070BDE16C2A68D26A91422F
S31508004BD0F8D370BD58000020CC30002070B5C068EE
S31508004BE0C46854B104F118000646FFF705F8144DD9
S31508004BF0286B50B13146134815E0502080F31188D0
S31508004C00BFF34F8FBFF36F8FFEE7201DFEF7F4FF4C
S31508004C10E06A2969884200D928610B4900EB8000BF
S31508004C2001EB8000211DFFF737F8E06A2968C96A99
S31508004C30884202D90120E86170BD002070BD0000DD
S31508004C405800002054350020CC3000202DE9F047CC
S31508004C502C4D00242746286B38B1FFF729F8286B16
S31508004C60401E2863286B40B146E0502080F3118827
S31508004C70BFF34F8FBFF36F8FFEE7A968224E01205F
S31508004C80D1B3A6F5916980463068E0B1F068C4688A
S31508004C9004F11800FEF7B0FF201DFEF7ADFFE06A2D
S31508004CA02969884200D9286100EB800109EB810057
S31508004CB0211DFEF7F1FFE06A2968C96A8842E3D335
S31508004CC0C5F81C80E0E70CB1FEF754FEAC694CB1A0
S31508004CD04FEA0806FFF7A2FE00B1EE61641EF9D19D
S31508004CE00020A861E86938B1084901273807086033
S31508004CF0BFF34F8FBFF36F8FFEF7FAFF3846BDE855
S31508004D00F0870000580000205435002004ED00E02C
S31508004D1010B586B0FEF7A4FB114C2068B8B1002088
S31508004D200390049005AA04A903A8FEF783FFDDE90A
S31508004D30032102208DE8070000230AA10B48059AE3
S31508004D40FFF72DFE606010B106B0012010BD50209F
S31508004D5080F31188BFF34F8FBFF36F8FFEE7000014
S31508004D6094000020546D722053766300513A00086F
S31508004D702DE9FF411E46134602000A9D4FF000002A
S31508004D8016D0144C2768002F0FD0CDE900130292D5
S31508004D90062917DAFFF72EFE02284FF000030FD078
S31508004DA0002269462068FFF72BFB04B0BDE8F081B6
S31508004DB0502080F31188BFF34F8FBFF36F8FFEE744
S31508004DC02A46EEE70023324669463846FFF7C8FB0F
S31508004DD0EBE700009400002010B500290AD00878F7
S31508004DE0002807D005487844FBF740FD002801D085
S31508004DF0002010BD0248784410BD00006A0000007B
S31508004E006200000000000000000000000102030428
S31508004E100607080900000000010203040102020354
S31508004E200405060708090A0B0C0D0E0F10100000E2
S31508004E30604F000800000020A800000028010008B4
S31508004E4008500008A8000020603C00004401000843
S31508004E501001000043000000F8FFFFFF004040403B
S31508004E60404040404040414141414140404040402F
S31508004E7040404040404040404040404040050202DB
S31508004E80020202020202020202020202022020209A
S31508004E9020202020202020020202020202029090F6
S31508004EA090909090101010101010101010101010F4
S31508004EB01010101010101010020202020202888848
S31508004EC08888888808080808080808080808080854
S31508004ED0080808080808080802020202400000003C
S31508004EE000000000000000000000000000000000B4
S31508004EF000000000000000000000000000000000A4
S31508004F000000000000000000000000000000000093
S31508004F100000000000000000000000000000000083
S31508004F200000000000000000000000000000000073
S31508004F300000000000000000000000000000000063
S31508004F400000000000000000000000000000000053
S31508004F500000000000000000000000000000000043
S31508004F600000000000000000000000000000000033
S31508004F70000000000000000000127A000100000096
S31508004F801000000000000000000000000000000003
S31508004F900000000000000000000000000000000003
S31508004FA000000000000000000000000000000000F3
S31508004FB0AAAAAAAA0000000000000000000000003B
S31508004FC000000000000000000000000000000000D3
S31508004FD000000000000000000000000000000000C3
S31508004FE000000000000000000000000000000000B3
S31508004FF000000000000000000000000000000000A3
S30D0800500000000000000000009A
S705080000ED05
