S31508000000083D002029030008931F0008931E0008D6
S31508000010911F00085F060008412100080000000043
S31508000020000000000000000000000000690200084F
S31508000030650A000800000000C5020008A11F0008A4
S31508000040430300084303000843030008430300086A
S31508000050430300084303000843030008430300085A
S31508000060430300084303000843030008430300084A
S31508000070430300084303000843030008430300083A
S315080000804303000843030008430300086D060008FD
S3150800009061060008430300084303000843030008F9
S315080000A0430300084303000843030008430300080A
S315080000B065200008430300084303000843030008BB
S315080000C043030008430300084303000843030008EA
S315080000D043030008430300084303000843030008DA
S315080000E043030008430300084303000843030008CA
S315080000F043030008430300084303000843030008BA
S3150800010043030008430300084303000843030008A9
S315080001104303000843030008430300084303000899
S315080001204303000843030008430300084303000889
S3150800013043030008000000000000000085060008D0
S315080001407906000843030008430300084303000830
S315080001504303000843030008430300084303000859
S315080001604303000843030008430300084303000849
S3150800017043030008430300080000000000000000D5
S31508000180430300084303000800F002F800F05CF897
S315080001900AA090E8000C82448344AAF10107DA45D4
S315080001A001D100F051F8AFF2090EBAE80F0013F0CA
S315080001B0010F18BFFB1A43F001031847F438000073
S315080001C0143900000A444FF0000C10F8013B13F0F4
S315080001D0070408BF10F8014B1D1108BF10F8015B92
S315080001E0641E05D010F8016B641E01F8016BF9D185
S315080001F013F0080F1EBF10F8014BAD1C0C1B09D1DC
S315080002006D1E58BF01F801CBFAD505E014F8016B4D
S3150800021001F8016B6D1EF9D59142D6D370470000DF
S315080002200023002400250026103A28BF78C1FBD8F1
S31508000230520728BF30C148BF0B6070471FB503F08F
S315080002400DFC1FBD10B510BD00F0D0F91146FFF723
S31508000250F5FF01F086FF00F0EEF903B4FFF7F2FFB1
S3150800026003BC00F0F5F900002C4B19680868B0E8E3
S31508000270F04F80F30988BFF36F8F4FF0000080F3CB
S31508000280118870470000000008480068006880F37D
S3150800029008884FF0000080F3148862B661B6BFF391
S315080002A04F8FBFF36F8F00DF00BF00BF08ED00E080
S315080002B0DFF80C00016841F470010160704700BF67
S315080002C088ED00E0EFF30980BFF36F8F134B1A68D0
S315080002D01EF0100F08BF20ED108A20E9F04F1060BD
S315080002E009B44FF0500080F31188BFF34F8FBFF366
S315080002F06F8F02F051FE4FF0000080F3118809BCA1
S3150800030019680868B0E8F04F1EF0100F08BFB0EC87
S31508000310108A80F30988BFF36F8F7047E8000020C2
S31508000320EFF30580704700000948804709480047F1
S31508000330FEE7FEE7FEE7FEE7FEE7FEE7FEE7FEE787
S31508000340FEE7FEE704480549054A064B70470000E4
S31508000350552000088901000808370020083D0020BC
S31508000360083900200839002053EA020C00F0698099
S315080003702DE9F04B4FF00006002B1FBFB3FA83F5AB
S3150800038003FA05F424FA05F65E4012BF1643B2FADC
S3150800039082F502FA05F4C5F120051EBF22FA05FC0E
S315080003A044EA0C04203556EA044C4FEA144418BFB4
S315080003B0641C4FF000084FF00009904271EB030CE3
S315080003C039D3002919BFB1FA81F701FA07F6B0FA4D
S315080003D080F700FA07F6C7F120071EBF20FA07FCC8
S315080003E046EA0C062037B6FBF4FCA7EB0507103FD8
S315080003F007F01F0BCBF120060CFA0BFB2CFA06F6BE
S3150800040044BFB3460026202FA4BF5E464FF0000B1C
S315080004105BEA060C08BF4FF0010B19EB0B09ABFBA7
S31508000420027C48EB0608C01B06FB02CC0BFB03CC80
S3150800043071EB0C01C1E70B46024641464846BDE84A
S31508000440F08B13B54FF000004FF00001AFF30080BA
S31508000450BDE81C407047032A40F2308010F0030CB8
S3150800046000F0158011F8013BBCF1020F624498BFF9
S3150800047011F801CB00F8013B38BF11F8013BA2F196
S31508000480040298BF00F801CB38BF00F8013B11F011
S31508000490030300F05780083AC0F0088051F8043B7F
S315080004A0083A51F804CBA0E80810F5E7121D5CBF1E
S315080004B051F8043B40F8043BAFF30080D20724BF51
S315080004C011F8013B11F801CB48BF11F8012B24BFE5
S315080004D000F8013B00F801CB48BF00F8012B704734
S315080004E002F0FF0343EA032242EA024200F05EB842
S315080004F04FF0000200B5134694469646203922BFAF
S31508000500A0E80C50A0E80C50B1F12001BFF4F7AFF9
S31508000510090728BFA0E80C5048BF0CC05DF804EBDB
S31508000520890028BF40F8042B08BF704748BF20F849
S31508000530022B11F0804F18BF00F8012B7047704747
S315080005407047704710B5203AC0F00B80B1E81850D4
S31508000550203AA0E81850B1E81850A0E81850BFF49F
S31508000560F5AF5FEA027C24BFB1E81850A0E818503E
S3150800057044BF18C918C0BDE810405FEA827C24BF92
S3150800058051F8043B40F8043B08BF7047D20728BF20
S3150800059031F8023B48BF11F8012B28BF20F8023B6F
S315080005A048BF00F8012B70474FF000020429C0F03D
S315080005B0128010F0030C3FF49DAFCCF1040CBCF193
S315080005C0020F18BF00F8012BA8BF20F8022BA1EBD9
S315080005D00C01FFF78FBF5FEAC17C24BF00F8012B2F
S315080005E000F8012B48BF00F8012B7047754600F04C
S315080005F02BF8AE4605006946534620F007008546A7
S3150800060018B020B5FFF79EFEBDE820404FF0000663
S315080006104FF000074FF000084FF0000B21F00701DC
S31508000620AC46ACE8C009ACE8C009ACE8C009ACE81F
S31508000630C0098D46704710B50446AFF300802046C2
S31508000640BDE81040FFF709BE00487047A4360020F1
S3150800065001491820ABBEFEE7260002007047FEE7F8
S31508000660014800F0CABB000038010020014800F02C
S31508000670C4BB000038010020014800F0BEBB0000E2
S3150800068060010020014800F0B8BB000060010020AE
S3150800069070B50446007A08281DD00025204600F0CB
S315080006A08BF8024620781F4901281AD0022831D132
S315080006B060684862207A4870002001F158032618BD
S315080006C0767A1E54401C0828F9D3CD621AB34869B5
S315080006D0401C486122E004F1090000F04FF8054685
S315080006E0DCE760680862207A08700E4B00205033F9
S315080006F02618767A1E54401C0828F9D38D621AB13A
S315080007000869401C086102E08869401C886188689D
S31508000710401C886070BDC869401CC861C868401C18
S31508000720C86070BD04000020114810B500688069D3
S31508000730104CA063104800688069E063A06BC0F3A2
S3150800074080002064E06BC0F380006064084800F015
S31508000750B1FA2063084800F0ADFA6063044800F077
S3150800076036FBA064044800F032FBE06410BD0000CC
S315080007703801002004000020600100208279818869
S31508000780C07962F31F4141EA006070470149486039
S3150800079000F069B90400002010701220507034204F
S315080007A090705620D0701171080A5071080C90711B
S315080007B0080ED071704700000178012906D000BFE5
S315080007C040F2012105D14FF0A20204E040F20221D5
S315080007D0F8E74FF0A10243688B420ED1017A082947
S315080007E00BD1417A914208D1817A122905D1C17A71
S315080007F0342902D1007B562801D0002070470120F9
S31508000800704786B04FF0FF342146684600F0E4F89A
S315080008100128F9D16846FFF73BFFF5E7F0B589B03F
S315080008200E4604461D46174618216846FFF760FE21
S3150800083006AA29463846FFF7AFFF204600F0C7FA52
S31508000840134D90B10020082100960290CDE90301CE
S315080008508DF8140008AB06AA6946204600F017F979
S3150800086048B1AC4211D10B480AE0AC4201D10A4862
S3150800087006E00A4804E0AC4201D1094800E009480C
S315080008800168491C016009B0F0BD0748F8E7000097
S315080008903801002080000020780000207C0000201D
S315080008A0680000206C0000208400002030B58BB062
S315080008B028216846FFF71CFE00200124CDE906041E
S315080008C00490009003900E250190029005906946C9
S315080008D01948CDE9084500F043F910B10B20FFF798
S315080008E055FF69461548059500F03AF910B10C20F0
S315080008F0FFF74CFF104800F009FD10B10D20FFF777
S3150800090045FF0E4800F002FD10B10E20FFF73EFF2E
S315080009100B21094800F0A9F810B10F20FFF736FFA0
S315080009200B21064800F0A1F810B11020FFF72EFFA2
S31508000930034804600BB030BD380100206001002078
S31508000940000000207CB504200024CDE900048501C0
S3150800095023462A460CA10E4802F072FE012802D050
S315080009600220FFF713FF0320CDE9000400232A46DF
S3150800097008A10A4802F064FE012804D0BDE87C40BC
S315080009800320FFF703BF7CBD43414E5F525800006A
S315080009900308000843414E5F54580000150A000832
S315080009A010B500221421102002F0CCFB054C206063
S315080009B010B90120FFF7EAFE2068BDE8104002A141
S315080009C002F0BAB99C00002043414E5F52585F516D
S315080009D055455545000000000A460146014800688D
S315080009E002F058BD9C0000200649884201D10648FD
S315080009F003E00649884203D105480168491C01609D
S31508000A0070470000380100207000002060010020B7
S31508000A107400002008B50024FFF748FF02F076FEB0
S31508000A2040F201260C4D771C00902346A122314640
S31508000A300A48FFF7F3FE2346A22239460848FFF77D
S31508000A40EDFE2868401C2860641CFFF76DFE6421D3
S31508000A50684602F0CDF9E8E7640000203801002076
S31508000A6060010020704772B6FEE790F82020012A40
S31508000A7007D0022A05D0416A41F48021416201204B
S31508000A807047006842690A43426100207047F0B522
S31508000A9090F820500468A468012D05D0022D03D0D3
S31508000AA0416A41F4802157E014F0406F01D1E50016
S31508000AB04FD5C4F301640125A5401D608D684FF428
S31508000AC0C0739DB1CE6835434E6845EAC6050668CB
S31508000AD003EB0417F5514FF4C275076805EB0415C7
S31508000AE00E697E51097D012905D009E00E88CD6879
S31508000AF045EA4655EBE701684E5946F480764E516D
S31508000B001179D579567941EA056195792D0445EA31
S31508000B10062529434FF4C676056806EB0416A9513F
S31508000B201178D57841EA0561957852782D0445EA19
S31508000B30022211434FF4C475026805EB041551519E
S31508000B40006803EB0411425842F0010242500020AB
S31508000B50F0BD416A41F4001141620120F0BD000078
S31508000B6010B590F82020012A07D0022A05D0416A3C
S31508000B7041F480214162012010BD3B48D0F8002293
S31508000B8042F00102C0F80022D0F8002222F47C527A
S31508000B90C0F80022D0F800224B6A42EA0322C0F8C5
S31508000BA000220A7D02F01F0301229A40D0F81C3267
S31508000BB09343C0F81C32CB69B3B9D0F80C329343CF
S31508000BC0C0F80C328C894B6864F31F434C6900EB00
S31508000BD0C404C4F840320C890B6864F31F434C699B
S31508000BE000EBC404C4F84432CB69012B16D1D0F803
S31508000BF00C321343C0F80C320C884B6864F31F435D
S31508000C004C6900EBC404C4F840320C89CB6864F321
S31508000C101F434C6900EBC404C4F844328B69002BAB
S31508000C20D0F804320ED01343C0F804320B69002BF7
S31508000C30D0F8143208D01343C0F81432096A0129CF
S31508000C4004D008E09343EFE79343F5E7D0F81C1286
S31508000C501143C0F81C12D0F8001221F00101C0F8A7
S31508000C600012002010BD0000006400400B4910B5BA
S31508000C70884207D10A490A68521C0A6000F01AF825
S31508000C80084909E00849884207D108490A68521CF8
S31508000C900A6000F00FF80649086010BD3801002008
S31508000CA094000020340000206001002098000020F5
S31508000CB038000020406A70470246002092F820302B
S31508000CC0012B01D0022B05D1106821B1D0F81000F4
S31508000CD000F003007047C068FAE770B590F8204046
S31508000CE0012C05D0022C03D0416A41F4802128E06A
S31508000CF0046809B32469A40720D04FF4D87405689A
S31508000D0004EB01142D5915F00405956005682D5955
S31508000D101AD0ED08556005682C5904F00204D46011
S31508000D204FF4DA74056804EB01142E5906F00F0621
S31508000D30082E0CD308250DE0E468DCE7416A41F487
S31508000D4000114162012070BD6D0D1560E3E72D5954
S31508000D5005F00F05156105682D59C5F30725956139
S31508000D6005682C59240C54614FF4DC72046802EBB4
S31508000D700112A4581C700468A458240A5C700468FC
S31508000D80A458240C9C700468A258120EDA704FF40A
S31508000D90DE72046802EB0112A4581C710468A45898
S31508000DA0240A5C710468A458240C9C710468A2582F
S31508000DB0120EDA71006829B1016941F0200101615A
S31508000DC0002070BDC16841F02001C160F8E7024605
S31508000DD0002092F82010012901D002290CD11168AF
S31508000DE08A68520100D501208A68120100D5401C84
S31508000DF08968C90000D5401C70472DE9F05F054693
S31508000E00006800244669D0F804908768D0F80CB0CA
S31508000E10D0F810A0D0F81880F10748D0F90714D0F8
S31508000E2001218160B80703D5284600F09CFA0CE03A
S31508000E30780702D54FF4006407E0380702D54FF467
S31508000E40805402E0284600F08DFAF80516D5296880
S31508000E504FF480708860B80503D5284600F086FAF6
S31508000E600CE0780502D544F4005407E0380502D5AD
S31508000E7044F4804402E0284600F077FAF80316D5D1
S31508000E8029684FF480308860B80303D5284600F0F7
S31508000E9070FA0CE0780302D544F4004407E03803FE
S31508000EA002D544F4803402E0284600F061FA30079F
S31508000EB007D55FEACB6004D52968102044F400748E
S31508000EC0C86070074FF0080707D55FEA0B7004D5AE
S31508000ED02868C760284600F0ABF9B00706D5286829
S31508000EE0C068800702D0284600F0A4F9700607D526
S31508000EF05FEACA6004D52968102044F48064086152
S31508000F00B00607D55FEA0A7004D52868076128463F
S31508000F1000F0F8F9F00606D528680069800702D0BF
S31508000F20284600F0F0F9B00308D55FEAC96005D590
S31508000F30296810204860284600F0E6F9F00307D52E
S31508000F405FEA097004D528684760284600F013FA56
S31508000F50300446D55FEA497040D5F00504D55FEA06
S31508000F60C87001D044F00104B00504D55FEA887062
S31508000F7001D544F00204700504D55FEA487001D52E
S31508000F8044F00404300529D518F0700F26D008F06F
S31508000F907000402815D006DC102809D020280AD071
S31508000FA0302816D10AE050280ED0602811D10EE05C
S31508000FB044F008040DE044F010040AE044F020046C
S31508000FC007E044F0400404E044F0800401E044F4FF
S31508000FD080742868816921F070018161296804207C
S31508000FE04860002C05D0686A204368622846FFF7E7
S31508000FF03DFEBDE8F09F70B5040003D094F82000CC
S3150800100010B104E0012070BD204600F081F8206888
S31508001010016841F00101016000F0A6FA05460526BF
S3150800102004E000F0A1FA401B0A2811D8206840689D
S31508001030C007F6D02068016821F00201016000F0BF
S3150800104093FA05460BE000F08FFA401B0A2806D9EA
S31508001050606A40F40030606284F82060D2E7206855
S3150800106040688007EFD4207E0128206801683DD0BB
S3150800107021F080010160607E01282068016838D06F
S3150800108021F040010160A07E01282068016833D064
S3150800109021F020010160E07E0128206801682ED039
S315080010A041F010010160207F01282068016829D0DD
S315080010B021F008010160607F01282068016824D0BA
S315080010C021F004010160D4E902010843D4E90412BD
S315080010D0114308436168491E08432168C861002016
S315080010E06062012084F82000002070BD41F0800174
S315080010F0C0E741F04001C5E741F02001CAE721F009
S315080011001001CFE741F00801D4E741F00401D9E71F
S31508001110F0B587B0044614216846FFF7E9F93F4B56
S315080011203F48DFF8F4E01968D4F800C03C4A0225C5
S315080011300326092710300024491CF4452CD11960D0
S31508001140012907D1016841F000710160006800F0CB
S3150800115000700590106840F001001060106802AB3E
S3150800116000F0010005904FF4C050CDE9000583E872
S31508001170D00069462B4800F0FFF80022052113200D
S3150800118000F090FA132000F07FFA002205211420BF
S3150800119000F088FA14203BE0DFF88CE0F44539D1FA
S315080011A0D0F800C04CF0806CC0F800C0D0F800C081
S315080011B001290CF0806CCDF814C0196007D10168BC
S315080011C041F000710160006800F000700590106839
S315080011D040F002001060106802AB00F002000590B3
S315080011E04FF44050CDE9000583E8D00069460F4822
S315080011F000F0C2F8002205213F2000F053FA3F20F4
S3150800120000F042FA00220521402000F04BFA402067
S3150800121000F03AFA07B0F0BD00640040A0000020D4
S3150800122030380240000002400068004000040240D6
S3150800123070470000F0B506468DB000272A48059786
S31508001240864201D1012503E02848864220D102259D
S31508001250274C00213046FFF72FFD70B11421684650
S31508001260FFF746F906AA002130460DF10903FFF7F4
S3150800127034FD78B12068401C20600598002807D006
S315080012801C494FF080500860BFF34F8FBFF36F8F34
S315080012900DB0F0BD089808B9099808B116481EE0BF
S315080012A00A98082803D92068401C2060D1E70698C8
S315080012B08DF8005001900A986946C0B28DF808006A
S315080012C002E00A18401C57720828FAD30B48002374
S315080012D005AA006802F07EF80128BAD00848016815
S315080012E0491C0160B5E700003801002060010020B4
S315080012F08800002004ED00E0900000209C000020FB
S315080013008C000020704770477047000070B504468F
S3150800131090F82000012804D0606A40F4002060623A
S3150800132018E0022084F820002068016821F00101F5
S31508001330016000F019F905460EE000BF00F014F947
S31508001340401B0A2808D9606A40F40030606205200C
S3150800135084F82000012070BD20684068C007EDD1E0
S31508001360606270BD7047FFF73FBB7047FFF73CBB35
S315080013707047FFF739BB70472DE9F84FDFF8BCA176
S315080013800022012503264FF00F090AF1040BAAF1E2
S31508001390040E00BF0B6805FA02F42340A34270D17D
S315080013A00F7907F00307012F01D0022F16D187689E
S315080013B04FEA420806FA08FC27EA0C07D1F80CC0DF
S315080013C00CFA08FC4CEA070CC0F808C04768A743A3
S315080013D00C79C4F3001494403C4344600C79E4430C
S315080013E0A4070AD0C4684FEA420C06FA0CF7BC43B5
S315080013F08F6807FA0CF72743C7600C7904F00304D3
S31508001400022C12D1D40800EB840CDCF820405707D4
S31508001410FF0E09FA07F824EA0804D1F8108008FA3A
S3150800142007F848EA0408CCF8208004684FEA420C1A
S3150800143006FA0CF7BC430F7907F0030707FA0CF70F
S31508001440274307604C6814F4403F70D03C4C27682B
S3150800145047F480472760246822F0030704F4804491
S315080014600094384C07EB040CDCF8084897074FEA59
S31508001470177809FA08F7BC43334FB84202D1002758
S3150800148024E054E0314FB84201D101271EE0304F25
S31508001490B84201D1022719E02E4FB84201D10327DD
S315080014A014E02D4FB84201D104270FE02B4FB84264
S315080014B001D105270AE02A4FB84201D1062705E0DF
S315080014C0284FB84201D1072700E0082707FA08F78E
S315080014D02743CCF80878DAF800405746D1F804C014
S315080014E09C435FEACC2C00D51C433C60DBF80040EB
S315080014F05F46D1F804C09C435FEA8C2C00D51C4398
S315080015003C60DEF800407746D1F804C09C435FEAA9
S315080015108C3C00D51C433C60084F083F3C68D1F81A
S3150800152004C09C435FEACC3C00D51C433C60521C7B
S31508001530102AFFF42FAFBDE8F88F0000083C0140E1
S3150800154044380240003001400000024000040240D6
S3150800155000080240000C024000100240001402403D
S3150800156000180240001C02400148806870470000CD
S31508001570AC000020024881680278114481607047F7
S31508001580AC0000200B4810B5016841F400710160F9
S31508001590016841F480610160016841F4807101606D
S315080015A0032000F09FF80F2000F006F800F050F82E
S315080015B0002010BD003C024030B50546204887B0E3
S315080015C00024016841F001010160006806A900F0E5
S315080015D00100009001A800F031F90498B0B100F0BC
S315080015E04DF9400017494FF08042B0FBF1F116481B
S315080015F0491E026040F2E732C0E90324C0E901143B
S31508001600846100F035FB040003D015E000F036F9DC
S31508001610E8E70D4800F05AFB04000DD11C2000F045
S3150800162033F8102D07D2002229461C2000F03AF87C
S315080016300648056000E0012407B0204630BD0000DA
S315080016404038024040420F0088010020B0000020C8
S315080016500C4882B0016841F480410160006800F4DA
S31508001660804000900748001F016841F080510160E2
S315080016700068002200F0805000900F21901E02B0F2
S3150800168000F010B844380240002809DB00F01F02B9
S31508001690012191404009800000F1E020C0F80011C6
S315080016A070470000F0B40E4B1B680C46C3F30223C8
S315080016B0C3F10705042D00D90425191D072901D2F0
S315080016C0002300E0DB1E012606FA05F1491E21402B
S315080016D099409E40761E16403143F0BC00F031BD5D
S315080016E00CED00E0064900F0070208684FF6FF0314
S315080016F0184040EA0220034A104308607047000079
S315080017000CED00E00000FA052DE9F0470E4605004D
S3150800171065D0DFF81481D8F80000F7B200F00700AA
S31508001720B04207D288F80070D8F8000000F0070029
S31508001730B04254D128683D4C810712D5400703D5DD
S31508001740206840F4E05020602878000703D5206818
S3150800175040F4604020602068A96820F0F000084343
S3150800176020602878C0072DD03049686808390128D4
S3150800177012D0022813D0032811D009688907002936
S315080017802DDA216821F0030101432160FFF7ECFE01
S31508001790814641F2883A0EE009688903EFE709684D
S315080017A08901ECE7FFF7E0FEA0EB0901514502D9F4
S315080017B00320BDE8F0872068696800F00C00B0EBEC
S315080017C0810FEFD1D8F80010404601F00701B14269
S315080017D007D90770006800F00700B04201D0012061
S315080017E0E7E72878400705D52068E96820F4E0503F
S315080017F0084320602878000706D52068296920F460
S31508001800604040EAC100206000F048F82168084AB4
S31508001810C1F30311515CC8400649086006480068D0
S31508001820FFF7CAFE0020C4E7003C02400838024021
S315080018308C3A0008A8000020B00000200F220260A1
S315080018400C4A136803F003034360136803F0F003BC
S315080018508360136803F4E053C36012684FF4E053DF
S3150800186003EAD20202610448006800F00700086033
S315080018707047000008380240003C02400448054909
S3150800188000680968044AC1F38221515CC840704760
S31508001890A8000020083802409C3A0008154810B5F0
S315080018A0006810F00C02144813D01449042A0FD00B
S315080018B0082A0ED10F4C241F2268236802F03F0223
S315080018C05B0207D52068C0F38810A0FB010106E07B
S315080018D0084610BD2168C1F38811A1FB0001002349
S315080018E0FEF742FD2168C1F30141491C4900B0FBDE
S315080018F0F1F010BD083802400024F40040787D015C
S315080019002DE9F84F04006ED02078DFF84C93C00715
S31508001910A9F104054AD009F104000168C1F381015F
S31508001920012908D00068C0F3810002280AD1D9F835
S315080019300000400206D52868800337D5606800286D
S31508001940E1D033E06068B0F5803F10D0B0F5A02F45
S31508001950286810D020F480302860286820F4802079
S3150800196028606068A8B1FFF7FFFD06460DE0286805
S3150800197040F48030F4E740F480202860F7E700BFA1
S31508001980FFF7F2FD801B642873D828688003F7D513
S315080019900CE0FFF7E9FD064605E000BFFFF7E4FDAA
S315080019A0801B6428F0D828688003F7D42078DFF8ED
S315080019B0AC8280074FF0000A3ED5A748001D016893
S315080019C011F00C0F08D00068C0F3810002280BD173
S315080019D0D9F80000400207D42868800716D5E068C1
S315080019E0012800D112E033E1E068B8B10120C8F857
S315080019F00000FFF7B9FD064605E000BFFFF7B4FD96
S31508001A00801B0228C0D828688007F7D5286821696E
S31508001A1020F0F80040EAC10028600DE0C8F800A0F0
S31508001A20FFF7A2FD064604E0FFF79EFD801B02288D
S31508001A301FD828688007F7D42078000722D5864F54
S31508001A4087486169703771B101210160FFF78CFD24
S31508001A50064604E0FFF788FD801B022809D8386887
S31508001A608007F7D50EE0C0F800A0FFF77DFD064613
S31508001A7005E082E0FFF778FD801B02287DD83868EC
S31508001A808007F7D42078400768D5DFF8CCB100275F
S31508001A900BF13C0BDBF80000C0000BD4DBF80010A0
S31508001AA041F08051CBF80010DBF80000012700F068
S31508001AB0805000906B4E3068C00510D4306840F4F2
S31508001AC080703060FFF750FD009005E0FFF74CFD91
S31508001AD00099401A022850D83068C005F6D55E4EDF
S31508001AE0A0686C3601280FD00528306810D020F081
S31508001AF001003060306820F004003060A068B8B19A
S31508001B00FFF732FD00900FE0306840F00100F4E77F
S31508001B1040F004003060F7E7FFF726FD0099411A08
S31508001B2041F28830814266D830688007F4D50EE0E5
S31508001B30FFF71AFD009007E0FFF716FD0099411A16
S31508001B4041F28830814256D830688007F4D42FB1E4
S31508001B50DBF8001021F08051CBF80010A069C8B35B
S31508001B603D49091D0968C1F3810102294AD00228A5
S31508001B70504607D0C8F8600000E03CE0FFF7F4FCE8
S31508001B8004463BE04746C8F86000FFF7EDFC06460A
S31508001B9005E000BFFFF7E8FC801B02282BD8286861
S31508001BA08001F7D4D4E907010843A16A2E4A4908F7
S31508001BB002EB0141626A41EA8211084394F82C104B
S31508001BC040EA0161C9F8001001203866FFF7CCFC2D
S31508001BD0044606E03EE000BFFFF7C6FC001B0228ED
S31508001BE009D828688001F7D534E000BFFFF7BCFCA8
S31508001BF0001B022802D90320BDE8F88F2868800157
S31508001C00F4D427E00128F7D0D9F80000E26900F4F7
S31508001C10800191421CD1226A00F03F01914217D1FE
S31508001C2047F6C071626A0140B1EB821F10D1A26A01
S31508001C304FF0FF3300F4403103EB5202B1EB024F91
S31508001C4006D194F82C1000F07060B0EB016F01D04B
S31508001C500120D1E70020CFE70438024000004742C0
S31508001C60800E4742007000400000FFFF7047704733
S31508001C7010B5040003D094F83D0010B107E0012028
S31508001C8010BD002084F83C00204600F01EF8022013
S31508001C9084F83D00211D206800F0EAF9012084F847
S31508001CA0460084F83E0084F83F0084F8400084F833
S31508001CB0410084F8420084F8430084F8440084F81C
S31508001CC0450084F83D00002010BD704790F83D108F
S31508001CD0012901D001207047022180F83D100168D2
S31508001CE0CA6842F00102CA6000681149884214D0E5
S31508001CF0B0F1804F11D00F4988420ED00E49884264
S31508001D000BD00E49884208D00D49884205D00D49A6
S31508001D10884202D00C49884204D1816801F0070143
S31508001D20062903D0016841F00101016000207047CF
S31508001D30000001400004004000080040000C00407C
S31508001D4000040140004001400018004070472DE99A
S31508001D50F04104460068C66805694FF00007A90700
S31508001D6013D5B10711D5F91E016101202077206826
S31508001D7080698007204602D0FFF7E8FF04E000F0FC
S31508001D807EF8204600F07CF82777680716D5700796
S31508001D9014D521686FF004000861022020772068B6
S31508001DA0806910F4407F204602D0FFF7CFFF04E099
S31508001DB000F065F8204600F063F82777280715D560
S31508001DC0300713D521686FF00800086104202077D2
S31508001DD02068C0698007204602D0FFF7B7FF04E0F5
S31508001DE000F04DF8204600F04BF82777E80616D5A0
S31508001DF0F00614D521686FF01000086108202077D6
S31508001E002068C06910F4407F204602D0FFF79EFF85
S31508001E1004E000F034F8204600F032F82777E807A7
S31508001E2008D0F00706D021686FF001000861204647
S31508001E3000F027F8280608D5300606D521686FF081
S31508001E40800008612046FFF711FF680608D570066E
S31508001E5006D521686FF040000861204600F018F8A2
S31508001E60A8060AD5B00608D521686FF020000861D3
S31508001E702046BDE8F041FFF7FABEBDE8F08170479D
S31508001E8070470068B0F1804F01D1FFF773BB704708
S31508001E907047FEE7104810B50E49016006214160FB
S31508001EA000214FF420228160C0E903124FF480120A
S31508001EB042610176012242768176C27601774177C0
S31508001EC0FFF799F8002803D0BDE81040FEF7CBBD10
S31508001ED010BD00000064004038010020104810B50D
S31508001EE00E4901600621416000214FF420228160DD
S31508001EF0C0E903124FF4801242610176012242764C
S31508001F008176C27601774177FFF775F8002803D006
S31508001F10BDE81040FEF7A7BD10BD000000680040F0
S31508001F206001002010B5FEF73BFD074A002107486F
S31508001F3000F064F90649086010B90420FEF726FC8B
S31508001F40BDE81040FEF7FEBC683A0008951F000879
S31508001F50A40000200D4808B5016841F08001016021
S31508001F60016801F080010091016841F002010160F9
S31508001F70016801F002010091016841F00101016068
S31508001F80006800F00100009008BD000030380240EB
S31508001F90FEE7FEE74FF47A74204600F0F3F8FBE715
S31508001FA010B54FF0E020006901F0A2FB012803D02C
S31508001FB0BDE8104001F0B0B810BD000030B593B0D0
S31508001FC030216846FEF794FA14210CA8FEF790FA19
S31508001FD01E480025016841F080510160006800F044
S31508001FE0805011901A48016841F4804101600068E8
S31508001FF0022400F480401190012000900004019012
S315080020008001CDE90640192008904FF4A870CDE963
S31508002010090404200B906846FFF772FC08B172B6F3
S31508002020FEE70CA90F2081E831004FF4A0500F906D
S315080020304FF48050109005210CA8FFF765FB002887
S3150800204001D072B6FEE713B030BD0000403802403A
S31508002050007000400248016841F470010160704751
S3150800206088ED00E00148FFF772BE000088010020F5
S31508002070F0B50268274B284D284E294F294C4FF0BA
S31508002080804C984209D0604507D0A84205D0B04296
S3150800209003D0B84201D0A04204D122F0700E4A689B
S315080020A042EA0E0298421BD0604519D0A84217D0C2
S315080020B0B04215D0B84213D0A04211D01A4DA8424A
S315080020C00ED01A4DA8420BD0194DA84208D0194D6A
S315080020D0A84205D0184DA84202D0184DA84203D1EF
S315080020E022F44075CA682A434D6922F080022A43C1
S315080020F08D68C5620D688562984201D0A04201D1FB
S3150800210009690163016841F0040101600121416127
S315080021100260F0BD000001400004004000080040D5
S31508002120000C00400004014000400140004401400A
S315080021300048014000180040001C004000200040F4
S31508002140FEE70907090E002804DB00F1E02080F805
S315080021500014704700F00F0000F1E02080F8141D0D
S315080021607047FFF70FFAFFF729FFFFF7F3FEFFF7B0
S3150800217091FEFFF7B3FE00F013F8FFF7D3FE00F069
S3150800218021F8FEE710B5EFF3058111B16FF00504EC
S3150800219003E0002408B100F005FE204610BD00004B
S315080021A0EFF3058010B16FF0050070470448016829
S315080021B011B14FF0FF3070470121016000207047D0
S315080021C0B800002010B5EFF3058010B16FF00500D8
S315080021D010BD08480168012902D04FF0FF3010BD34
S315080021E0054A002182F8141D0221016000F088FECC
S315080021F0002010BDB80000200BE000E02DE9FF41EB
S315080022004FEA01034FF00005EFF30581039549BB3B
S3150800221040B38027182100244AB3166806B134460D
S3150800222096691EB13146761E382E02D21679F60701
S3150800223003D0002004B0BDE8F081566906B1B7089E
S31508002240D2F808C0BCF1000F0DD0D5685C2D18D3A4
S3150800225012693AB136B18DE806103A46214601F0C0
S315080022601CFA03900DE0D6685EB912694AB903AA4A
S31508002270CDE90012BAB2214601F0E2F9012800D0F0
S3150800228003950398D6E700002DE9F041134C0F4655
S315080022900546E6682068001D00F04AFC681C07D160
S315080022A037B12168BDE8F0410D48091D00F096BC1C
S315080022B020683544B5424560216805D2A06BBDE863
S315080022C0F041091D00F072BC606B091D00F06EFC40
S315080022D0A06A854200D2A562BDE8F081E800002028
S315080022E0783500202DE9F041054600F083FC2D4C99
S315080022F0A068401CA06020682B4F10B1606930B3FD
S315080023002BE02560A068012827D1002606EB860069
S3150800231007EB800000F03CFC761C382EF6D32348E9
S3150800232000F036FC2148143000F032FC1F482830F3
S3150800233000F02EFC1D483C3000F02AFC1B485030AB
S3150800234000F026FC194860631430A06305E0206895
S31508002350E96AC06A884200D82560606A401C6062E3
S315080023606864E86A2169884200D9206100EB800028
S3150800237007EB8000291D00F031FC00F05BFC60696A
S3150800238000280CD02068E96AC06A884207D2084942
S315080023904FF080500860BFF34F8FBFF36F8FBDE8D3
S315080023A0F0810000E8000020C83000202835002011
S315080023B004ED00E038B500F01DFC104C2068C8B9E3
S315080023C00F4800F0E5FB0E48143000F0E1FB0C481E
S315080023D0E060143020610A4B0020F03B009003F1C6
S315080023E0500210210A2000F0CEFE206010B105A18F
S315080023F000F0A2FCBDE8384000F01CBC2401002017
S315080024007C360020546D72510000000030B4026C16
S315080024100B46002A0BD0C1681144C1608468A142EA
S3150800242001D30168C16030BC1846FEF714B830BC49
S3150800243070472DE9F041856B174604460026026C65
S3150800244082B1C7B1E068FEF706F8E168206C091AA0
S31508002450E1602268914202D2A168081AE060022F60
S3150800246016D017E02068A8B9A06801F0B9F90646A1
S315080024700020A0600EE06068FDF7EDFF216C606843
S3150800248008446060A168884204D32068606001E05F
S3150800249005B16D1E6D1CA5633046BDE8F08110B50B
S315080024A0044690F8590058B101280CD002280FD0DC
S315080024B0502080F31188BFF34F8FBFF36F8FFEE76D
S315080024C0206B00F0CBFB2046BDE8104000F0C6BBF1
S315080024D010BD000010484FF42051420706D0C01D19
S315080024E00D4920F00700411AC1F520510B4A002377
S315080024F00144C2E900030839183A21F007011160BE
S315080025004B600B600B1AC0E9001393604FF0004054
S31508002510536050617047000088080020D4000020EE
S31508002520144E154CA6F29C474FF08058DFF84C9095
S3150800253012E000BF00F05EFBF068C568281D00F0D9
S31508002540F7FAA068401EA0606068401E606000F050
S3150800255071FB2846FFF7A3FF60680028EAD13868B0
S315080025600128F9D9C9F80080BFF34F8FBFF36F8FE1
S31508002570F2E7000064350020E800002004ED00E0E2
S3150800258070B51D46049C51B1C4F80020C4E90F017A
S315080025900121204600F02AFE84F84C5070BD2460C4
S315080025A0F4E700002DE9F05F8846DDE90B9415464F
S315080025B0834691009A460A9EA522206BFDF790FF56
S315080025C06FF00301206B01EB8501084420F0070733
S315080025D0780707D0502080F31188BFF34F8FBFF3D9
S315080025E06F8FFEE70025B8F1000F0FD05FF00000EF
S315080025F0221818F8001082F8341018F8001011B1D3
S31508002600401C1028F4D384F8435001E084F8345071
S31508002610382E00D33726E662C4E91365201D00F07C
S31508002620C2FA04F1180000F0BEFA2461C6F13800B7
S315080026306462A061656584F8585052465946384622
S3150800264000F060FA2060B9F1000F01D0C9F8004027
S31508002650BDE8F09F30B5114900E011460A6882428C
S31508002660FBD34B685C18844203D140681844486021
S31508002670084643681C18944209D1084C183C24683B
S31508002680A24209D052681A4442600A681268026077
S31508002690814200D0086030BD0460F9E7D40000200C
S315080026A070B5002441600B4D0061914206D8D11ADD
S315080026B08269914206D2011D286907E09A4203D22F
S315080026C0994201D3012403E0011DE86800F06EFA7F
S315080026D0204670BD2401002010B5044600F08AFA91
S315080026E0A06B28B15FF0000400F0A4FA204610BDE4
S315080026F00124F9E730B589B03C4D6EE0049800280E
S3150800270006DADDE90601059A90470498002864DB95
S31508002710069C606910B1201D00F00AFA03A800F0B3
S31508002720D7F8024604980A2857D2DFE800F00505CC
S31508002730052D334A05052D3394F8280040F001008D
S3150800274084F828000599A069059B01442046FFF7EF
S31508002750A7FF68B3216A2046884794F828004007EF
S315080027603BD5002000900598A16900234218194618
S31508002770204601F03FF9D8B9502080F31188BFF3FD
S315080027804F8FBFF36F8FFEE714F8280F20F0010074
S31508002790207022E094F8280040F0010084F8280010
S315080027A00598A06128B1811813462046FFF778FFDF
S315080027B013E0502080F31188BFF34F8FBFF36F8F5C
S315080027C0FEE794F82800810703D4204600F046FA6D
S315080027D003E020F0010084F82800002204A92868F4
S315080027E000F058FE002889D109B030BD2401002028
S315080027F02DE9FC410F46054600F0C6FB01A800F08E
S3150800280067F80446019818B101F062F8BDE8FC8142
S31508002810254EAFB130690068D0B30027291B3A4668
S31508002820306800F09DFA01F053F80028EED11F49F0
S315080028304FF080500860BFF34F8FBFF36F8FE5E707
S31508002840A542EBD801F044F8F0682746C068C4688A
S31508002850201D00F06DF994F82800410719D5A069E4
S315080028602B4641193A462046FFF71AFFA8B1002021
S315080028700346014600902A46204601F0BBF860B997
S31508002880502080F31188BFF34F8FBFF36F8FFEE799
S3150800289007E020F0010084F82800216A20468847CE
S315080028A0B4E70127BAE700002401002004ED00E0A0
S315080028B00648416B096829B1416BC968C968496806
S315080028C0816270474FF0FF31FAE70000E800002008
S315080028D070B5054600F01AFF064E0446B0688442F5
S315080028E003D200F009F8012000E000202860204605
S315080028F0B46070BD24010020F8B5194D20E0C06809
S31508002900C4680668201D00F013F9216A2046884726
S3150800291094F82800400713D5A0693044B04206D978
S3150800292024616060211DE86800F040F908E0002095
S315080029300346014600903246204601F05BF838B15E
S31508002940E86801680029DAD12969C5E90310F8BDE4
S31508002950502080F31188BFF34F8FBFF36F8FFEE7C8
S315080029602401002008484068401C4FF0500080F3BE
S31508002970118804D0BFF34F8FBFF36F8FFEE7BFF305
S315080029804F8FBFF36F8FFEE7DC000020074CE0682F
S31508002990016841B1C0680021D0F80000FFF728FFA0
S315080029A0FFF7A8FEF3E701210020F7E7240100203E
S315080029B02DE9F041044600F01DF994F9455004F15B
S315080029C0240609E0606A48B1304600F049FF08B1BC
S315080029D000F05CFA6D1E6DB2002DF3DC4FF0FF3689
S315080029E084F8456000F026F900F004F994F944509B
S315080029F004F1100709E0206948B1384600F030FFB5
S31508002A0008B100F043FA6D1E6DB2002DF3DC84F8B0
S31508002A104460BDE8F04100F00DB900002DE9F04131
S31508002A200546002700F0B0FA354E306808B9FFF7BA
S31508002A3051FD7069054216D1ADB1083568070ED04B
S31508002A4005F00700C0F108000544680707D05020C4
S31508002A5080F31188BFF34F8FBFF36F8FFEE715B171
S31508002A607068854202D900F033FF39E024481830EF
S31508002A7001460C6801E020460C466168A94202D26C
S31508002A8021680029F7D131688C42ECD007682168A3
S31508002A90016060680837411B10290ED96019420782
S31508002AA007D0502080F31188BFF34F8FBFF36F8F85
S31508002AB0FEE741606560FFF7CDFD61687068401A02
S31508002AC07060B268904200D2B0607069014300201D
S31508002AD0C4E90001F068401CF06000F0F9FE0FB987
S31508002AE000F050F8780707D0502080F31188BFF31C
S31508002AF04F8FBFF36F8FFEE73846BDE8F0810000C1
S31508002B00BC00002010B5031F4FF080741C601B1F0B
S31508002B1021F001011960191F044B0B6014390A6072
S31508002B20091F6FF0020244380A6010BD65290008C3
S31508002B30D0E9013201699A60D0E901235A604A68EE
S31508002B40824201D182684A60002202610868401EFA
S31508002B500860086870470000034B036003F15C00D7
S31508002B600860802010607047D0010020044B036085
S31508002B7003F15C0008604FF4807010607047000035
S31508002B802C0400201620FDF701BE1520FDF7FEBD1A
S31508002B9000F108014FF0FF32C0E90112C16001617E
S31508002BA000210160704700210161704730B50B684C
S31508002BB05A1C02D000F1080202E0026904E022462B
S31508002BC0546825689D42FAD953684B6099608A60B3
S31508002BD0516008610168491C016030BD42684A605D
S31508002BE093688B6093685960916008610168491C15
S31508002BF001607047502080F31188BFF34F8FBFF3F1
S31508002C006F8F0A494868401C486001280CD108485B
S31508002C10006810F0FF0F07D0502080F31188BFF32B
S31508002C204F8FBFF36F8FFEE770470000DC00002070
S31508002C3004ED00E00849486828B1401E486001D103
S31508002C4080F311887047502080F31188BFF34F8FA7
S31508002C50BFF36F8FFEE70000DC00002070B5002888
S31508002C602AD0164DA0F1080460686969084207D1A0
S31508002C70502080F31188BFF34F8FBFF36F8FFEE7A5
S31508002C8022683AB1502080F31188BFF34F8FBFF303
S31508002C906F8FFEE78843606000F076F960686968C0
S31508002CA0084468602046FFF7D5FC2869401C28615F
S31508002CB0BDE8704000F00CBE70BD0000BC000020EE
S31508002CC04FF0E02000210161816105494FF47A72D5
S31508002CD00968B1FBF2F1491E41610721016170479C
S31508002CE0A800002010B5FDF71BFB114910280ED3CC
S31508002CF000F1E02090F8F0030A78904207D25020BD
S31508002D0080F31188BFF34F8FBFF36F8FFEE7094833
S31508002D100068896800F4E060884207D9502080F38B
S31508002D201188BFF34F8FBFF36F8FFEE710BD00000A
S31508002D30DC0000200CED00E010B5084B002200BFB7
S31508002D4053F832401CB1521C082AF9D310BD43F877
S31508002D50321003EBC201486010BD00008830002025
S31508002D6070B515460E460446FFF744FF94F944101D
S31508002D700020491C01D184F8440094F94510491CE7
S31508002D8001D184F84500FFF755FFA06B28B92A46FC
S31508002D90314604F1240000F097F82046BDE870405B
S31508002DA0FFF706BE10B5020014D00F48006B38B105
S31508002DB0502080F31188BFF34F8FBFF36F8FFEE764
S31508002DC000F0E2F800211046FFF75EFA00F080FDF9
S31508002DD0002807D105494FF080500860BFF34F8F90
S31508002DE0BFF36F8F10BD0000E800002004ED00E07F
S31508002DF070B50D4604000BD095B11E4A106BB8B1DC
S31508002E00502080F31188BFF34F8FBFF36F8FFEE713
S31508002E10502080F31188BFF34F8FBFF36F8FFEE703
S31508002E20502080F31188BFF34F8FBFF36F8FFEE7F3
S31508002E3000F0AAF8D26823685919934204D98B423C
S31508002E400AD9914202D807E08B42FAD9881A21603A
S31508002E500021FFF719FA00E0216000F039FD00288B
S31508002E6007D105494FF080500860BFF34F8FBFF375
S31508002E706F8F70BDE800002004ED00E002490A6A81
S31508002E800260C96841607047E800002001490120D6
S31508002E90C8617047E800002010B50C4650B10949D2
S31508002EA009681831FFF782FE2046BDE81040012167
S31508002EB0FFF7EAB9502080F31188BFF34F8FBFF3AD
S31508002EC06F8FFEE7E800002070B514460D4668B11E
S31508002ED00A4909681831FFF781FE0CB14FF0FF3532
S31508002EE021462846BDE87040FFF7CEB9502080F34A
S31508002EF01188BFF34F8FBFF36F8FFEE7E8000020FE
S31508002F0030B587B00024039405AA04A903A804943D
S31508002F10FFF722FEDDE903010094CDE90110002345
S31508002F2015A11748059A00F0B8FB164D0028E86267
S31508002F301FD000F02FFD012809D0401C19D15020C0
S31508002F4080F31188BFF34F8FBFF36F8FFEE75020D2
S31508002F5080F31188BFF34F8FBFF36F8F4FF0FF30A9
S31508002F60A86201206861EC6007B0BDE8304000F057
S31508002F7059B807B030BD000049444C450000000070
S31508002F8021250008E80000200248016B491C01635E
S31508002F9070470000E800002010B5204C206B10B1E7
S31508002FA00120E06110BD0020E06120684FF0A531E6
S31508002FB0006B02688A4208D142688A4205D1826853
S31508002FC08A4202D1C068884204D021682068343118
S31508002FD0FFF7DBFD2069124901E0B8B1401E00EB9E
S31508002FE0800251F82220002AF7D000EB800201EB7C
S31508002FF0820101F108034A6852684A609A4201D17F
S3150800300052684A60D1682160206110BD502080F363
S315080030101188BFF34F8FBFF36F8FFEE7E8000020DC
S31508003020C83000201CB537480168374A914207D195
S31508003030502080F31188BFF34F8FBFF36F8FFEE7E1
S3150800304000683149491E884207D1502080F311880B
S31508003050BFF34F8FBFF36F8FFEE72C4908780190B7
S31508003060FF20087008788DF800009DF800009DF88C
S31508003070002000F0F000904207D0502080F311881D
S31508003080BFF34F8FBFF36F8FFEE79DF80000204C0C
S3150800309000F0500020700720A06005E09DF8002091
S315080030A052008DF80020401E9DF800201206F5D427
S315080030B0A060032807D0502080F31188BFF34F8FF4
S315080030C0BFF36F8FFEE74FF44070A0600198087059
S315080030D00C482030016841F470010160016841F034
S315080030E070410160FFF7ECFD00206060FDF7E0F835
S315080030F00848016841F040410160FDF7C5F8002025
S315080031001CBD000000ED00E071C20F4100E400E0C4
S31508003110DC00002034EF00E010B5502080F3118861
S31508003120BFF34F8FBFF36F8F00F0F6FA18B104495B
S315080031304FF080500860002080F3118810BD000011
S3150800314004ED00E0F8B517460E46050013D005FB5A
S3150800315006F05030FFF762FC04000AD0002084F81D
S31508003160460004F150023B46314628460094FFF7D4
S3150800317007FA2046F8BD502080F31188BFF34F8F19
S31508003180BFF36F8FFEE738B5049D18B153B1CAB1C6
S3150800319081B120E0502080F31188BFF34F8FBFF331
S315080031A06F8FFEE7502080F31188BFF34F8FBFF370
S315080031B06F8FFEE7502080F31188BFF34F8FBFF360
S315080031C06F8FFEE739B1502080F31188BFF34F8F18
S315080031D0BFF36F8FFEE750241C46012384F8463060
S315080031E02B460094FFF7CCF9204638BD70B50D463E
S315080031F0040025D0FFF7FEFCD4E90F20216802FB66
S315080032000011A1600021A163216861600A46D4E922
S315080032100F01401E00FB0121E16021464FF0FF30FF
S3150800322001F8440F487004F110008DB1FFF7B0FCA7
S3150800323004F12400FFF7ACFCFFF7FCFC012070BD8D
S31508003240502080F31188BFF34F8FBFF36F8FFEE7CF
S3150800325021690029F0D000F003FB0028ECD00449CE
S315080032604FF080500860BFF34F8FBFF36F8FE3E7CF
S3150800327004ED00E02DE9FF4782B01D468A464FF06F
S315080032800008040003D0BAF1000F08D011E050205E
S3150800329080F31188BFF34F8FBFF36F8FFEE7206C63
S315080032A038B1502080F31188BFF34F8FBFF36F8F6B
S315080032B0FEE7022D0AD1E06B012807D0502080F3E3
S315080032C01188BFF34F8FBFF36F8FFEE700F010FA38
S315080032D03F4F4FF000094FF0805648B9049838B16F
S315080032E0502080F31188BFF34F8FBFF36F8FFEE72F
S315080032F0FFF780FCA06BE16B884207D3022D05D04F
S315080033000498D0B1B8F1000F1AD01EE02A465146EB
S315080033102046FFF78EF8616A19B104F1240000F01F
S315080033209FFA20B13E60BFF34F8FBFF36F8FFFF751
S3150800333081FC012006B0BDE8F087FFF77BFC22E0A0
S315080033406846FFF79BFD4FF00108FFF773FCFFF790
S315080033501BFEFFF74FFC94F94400401C01D184F88A
S31508003360449094F94500401C01D184F84590FFF734
S3150800337061FC04A9684600F029F930B12046FFF738
S3150800338017FB00F0A5FA0020D4E7FFF733FCA06B83
S31508003390E16B884213D1FFF74DFC04F11000049944
S315080033A0FFF77AFD2046FFF703FB00F091FA0028A5
S315080033B09ED13E60BFF34F8FBFF36F8F98E7FFF73D
S315080033C039FC2046FFF7F4FA00F082FA90E700008D
S315080033D004ED00E02DE9F0471F46904689460400B3
S315080033E003D0B9F1000F08D011E0502080F31188FE
S315080033F0BFF34F8FBFF36F8FFEE7206C38B15020B5
S3150800340080F31188BFF34F8FBFF36F8FFEE7022F4C
S315080034100AD1E06B012807D0502080F31188BFF34A
S315080034204F8FBFF36F8FFEE7FFF75CFC5020EFF37B
S31508003430118680F31188BFF34F8FBFF36F8FA06B90
S31508003440E16B884206D3022F04D0002086F3118848
S31508003450BDE8F08794F94550A06B3A4649462046A0
S31508003460FEF7E7FF681C04D06D1C84F84550012060
S31508003470ECE7606A0028FAD004F1240000F0F0F9BD
S315080034800028F4D0B8F1000FF1D00121C8F80010D7
S31508003490EDE700002DE9F747002683B08A460400C9
S315080034A003D0BAF1000F08D011E0502080F311883C
S315080034B0BFF34F8FBFF36F8FFEE7206C38B15020F4
S315080034C080F31188BFF34F8FBFF36F8FFEE700F0CD
S315080034D00FF9DFF8F4804FF000094FF0805748B92C
S315080034E0059838B1502080F31188BFF34F8FBFF38A
S315080034F06F8FFEE7FFF77EFBA56BC5B151462046E9
S31508003500FEF784FF6D1EA563206950B104F1100013
S3150800351000F0A6F928B1C8F80070BFF34F8FBFF3C3
S315080035206F8FFFF787FB012006B0BDE8F087059887
S3150800353008B11EB106E0FFF77DFB27E06846FFF7F6
S315080035409DFC0126FFF776FBFFF71EFDFFF752FBF2
S3150800355094F94400401C01D184F8449094F945003C
S31508003560401C01D184F84590FFF764FB05A968461D
S3150800357000F02CF8002820460AD0FFF719FA00F0C8
S31508003580A7F92046FFF7A8F80028B3D00020CBE714
S31508003590FFF7A2F890B104F124000599FFF77CFC27
S315080035A02046FFF705FA00F093F90028A2D1C8F8DB
S315080035B00070BFF34F8FBFF36F8F9BE72046FFF76F
S315080035C0F7F900F085F995E704ED00E02DE9F041FB
S315080035D00C46050011D0C4B1FFF70CFB174BDA688F
S315080035E06E682068911B471C17D02F681B6A9F427C
S315080035F019D0964217D8012410E0502080F311887C
S31508003600BFF34F8FBFF36F8FFEE7502080F311880B
S31508003610BFF34F8FBFF36F8FFEE70024FFF70AFB58
S315080036202046BDE8F081884205D9401A2060284620
S31508003630FFF724FCF1E700202060DCE7E800002023
S315080036402DE9FF5F8346DDE90E87994616468A46C9
S315080036509000FFF7E3F905001CD05C20FFF7DEF9C0
S31508003660040014D00020256384F85900CDE90240EF
S31508003670CDE900874B46324651465846FEF792FF3B
S315080036802046FEF72FFE012004B0BDE8F09F28462D
S31508003690FFF7E4FA4FF0FF30F6E7F0B585B0DDE95D
S315080036A00B640A9DA6B1DCB15C2700972663022647
S315080036B084F85960002604AFCDE90246CDE90057E3
S315080036C0FEF770FF2046FEF70DFE049805B0F0BD24
S315080036D0502080F31188BFF34F8FBFF36F8FFEE73B
S315080036E0502080F31188BFF34F8FBFF36F8FFEE72B
S315080036F00548416919B1006B18B1002070470120CF
S315080037007047022070470000E80000200148C068A2
S3150800371070470000E80000202DE9F0412E4C0027F4
S31508003720206B28B1A069401CA0613846BDE8F0812D
S31508003730E668761CE66013D1606B006838B15020E5
S3150800374080F31188BFF34F8FBFF36F8FFEE7606B6F
S31508003750A16B6163A063206A401C2062FFF7A8F88A
S31508003760A06ADFF87880864209D3606B0068A0B14A
S31508003770606BC068C5686868864211D2A062206816
S31508003780C06A00EB800158F82100012800D90127FA
S31508003790E0690028C9D00127C7E74FF0FF30EDE7F9
S315080037A0281DFFF7C5F9A86A18B105F11800FFF733
S315080037B0BFF9E86A2169884200D9206100EB8001D7
S315080037C008EB8100291DFFF709FAE86A2168C96A2A
S315080037D08842CAD30127C8E7E8000020C83000207D
S315080037E070B504004FF0000133D01B4D28688442A1
S315080037F007D0502080F31188BFF34F8FBFF36F8F28
S31508003800FEE7206D38B1401E2065E36CE26A9A42F5
S315080038101FD040B11DE0502080F31188BFF34F8FB1
S31508003820BFF36F8FFEE7201DFFF782F9E06CE062B9
S31508003830C0F13800A061E06A2969884200D9286188
S31508003840064900EB800001EB8000211DFFF7C6F951
S315080038500121084670BD0000E8000020C83000209D
S3150800386070B5C068C46854B104F118000646FFF77D
S315080038705FF9144D286B50B13146134815E05020B6
S3150800388080F31188BFF34F8FBFF36F8FFEE7201DBC
S31508003890FFF74EF9E06A2969884200D928610B4981
S315080038A000EB800001EB8000211DFFF797F9E06A25
S315080038B02968C96A884202D90120E86170BD0020DA
S315080038C070BD0000E800002050350020C8300020F8
S315080038D02DE9F0472C4D00242746286B38B1FFF711
S315080038E089F9286B401E2863286B40B146E05020B2
S315080038F080F31188BFF34F8FBFF36F8FFEE7A96878
S31508003900224E0120D1B3A6F5916980463068E0B110
S31508003910F068C46804F11800FFF70AF9201DFFF7DC
S3150800392007F9E06A2969884200D9286100EB800115
S3150800393009EB8100211DFFF751F9E06A2968C96A78
S315080039408842E3D3C5F81C80E0E70CB1FEF7B0FF68
S31508003950AC694CB14FEA0806FFF7DEFE00B1EE612E
S31508003960641EF9D10020A861E86938B10849012721
S3150800397038070860BFF34F8FBFF36F8FFFF75AF909
S315080039803846BDE8F0870000E800002050350020E2
S3150800399004ED00E010B586B0FEF70CFD114C20686A
S315080039A0B8B100200390049005AA04A903A8FFF75C
S315080039B0DDF8DDE9032102208DE8070000230AA1CE
S315080039C00B48059AFFF769FE606010B106B0012042
S315080039D010BD502080F31188BFF34F8FBFF36F8F50
S315080039E0FEE7000024010020546D72205376630020
S315080039F08D2900082DE9FF411E46134602000A9D3F
S31508003A004FF0000016D0144C2768002F0FD0CDE9D0
S31508003A1000130292062917DAFFF76AFE02284FF00A
S31508003A2000030FD0002269462068FFF723FC04B084
S31508003A30BDE8F081502080F31188BFF34F8FBFF3A4
S31508003A406F8FFEE72A46EEE7002332466946384678
S31508003A50FFF7C0FCEBE70000240100204FF04070A0
S31508003A60E1EE100A70470000A43A000800000000C2
S31508003A700000000000000000000000000002000036
S31508003A801800000000000000000000000000000010
S31508003A9000000000010203040607080900000000F0
S31508003AA00102030464656661756C745461736B0086
S31508003AB0D03A00080000002038010000C4010008C0
S31508003AC0E43A000838010020D03B00002002000834
S31508003AD0014C5A030401551324F43201022F101A1B
S30908003AE0AA010154D4
S7050800018968
